:100000002051002035120000311200003112000092
:1000100000000000000000000000000000000000E0
:100020000000000000000000000000006514000057
:1000300000000000000000004115000085150000D0
:1000400031120000311200003112000015010000D1
:100050003112000031120000311200003112000094
:10006000311200009D060000AD060000BD06000034
:10007000CD060000DD060000ED0600003112000094
:100080003112000031120000311200003112000064
:100090003112000031120000311200003112000054
:1000A0003112000031120000311200003112000044
:1000B0000000000010B5064C2378002B07D1054B3B
:1000C000002B02D0044800E000BF0123237010BDC4
:1000D0006C0000200000000038470000084B10B5FD
:1000E000002B03D00749084800E000BF0748036819
:1000F000002B00D110BD064B002BFBD09847F9E731
:100100000000000070000020384700003847000061
:100110000000000010B50F4B1A681468518A138A4A
:100120001940207AE379034058B2002806DBDB0748
:1001300003D5CB070AD40123237210BD8B0702D449
:1001400080232372F9E7D3689847F9E793689847C3
:10015000F1E7C04680300020F0B5C64600B50C007F
:10016000904600280FD1002A11DD8F18094E0A4D44
:10017000306821002B6898470134BC42F8D14046D2
:1001800004BC9046F0BD01235B429846F7E78046E9
:10019000F5E7C0468C30002084300020F0B5C6461C
:1001A00000B50E0015000138022810D8002A11D021
:1001B00000240C4B98460C4F43461868315D3B6851
:1001C0009847002808DB0134A542F5D106E0012458
:1001D000644203E0140001E001246442200004BCF6
:1001E0009046F0BD8C300020883000200C4B1B68FE
:1001F000002B06D1EFF31083002B07D00022094B10
:100200001A70074A136801331360704772B6BFF360
:100210005F8F0022044B1A700132024B1A70F0E714
:10022000880000208C00002000000020084B1A6885
:10023000013A1A601B68002B09D1064B1B78002B72
:1002400005D00122044B1A70BFF35F8F62B670476E
:10025000880000208C00002000000020F0B583B052
:1002600001AC012565700027A770257021003E2094
:10027000064EB0478022D205054B9A612770657003
:1002800021000F20B04703B0F0BDC046950200002A
:100290008044004100B583B001AB80221A700A7817
:1002A0005A704A789A708A78DA701900014B984728
:1002B00003B000BDD1110000F0B5DE4657464E46F2
:1002C0004546E0B587B08046049116001F00002225
:1002D000002300218B463F24012021000096019736
:1002E0005C4603944446059413E02024641A0500F8
:1002F000E540A84614E0009C019D121BAB415C4602
:100300004D462C43A346039C45462C430394013998
:1003100025D3202464420C19E7D40500A540A84643
:1003200004008C40A14692185B4114001D00059EFC
:100330004F463E40B446049E47463E40B24666465F
:1003400057463E4303D00600264332002B00009C54
:10035000019D9D42DBD8CED19442D8D8CBE7039BF8
:100360005846190007B03CBC90469946A246AB4699
:10037000F0BD10B5490840230024814202D2180084
:1003800010BD1C00091A631C9BB28842F9D9402396
:10039000FF2CF4D814800023F1E70000F0B583B0FF
:1003A0000F00160008AA117804004C434022BC42FA
:1003B00002D9100003B0F0BD002B14D102000800D8
:1003C0000021194CA04701003A0000230020174CDF
:1003D000A04700220123121A8B41120C1B041A435E
:1003E00032800022E5E70022012BF9D10A00002328
:1003F00000210D4CA04702000B0000920193380031
:1004000000210A4CA047050080239B01402298420E
:10041000CFD8790FF800009A019BA047EA00821A12
:10042000D2B252032A43DBE7C5300000B902000014
:1004300010B582B004000E4B1B78002B07D00029AA
:1004400005D10B4B5B78834210D01D200CE001A935
:100450000C701320074B98471320074B9847044B09
:100460005C7001221A70002002B010BD0020FBE772
:1004700090000020D91000004D100000404B984221
:1004800031D00AD93F4B98424DD03F4B98425AD079
:100490003E4B984237D0002070473D4B98420CD0DD
:1004A0003C4B9842F7D1012917D000295DD0022991
:1004B00015D0032915D00020EEE7012907D0002927
:1004C00051D0022905D0032905D00020E4E73248A5
:1004D000E2E73248E0E73248DEE73248DCE732481C
:1004E000DAE73248D8E7012907D000293FD00229AE
:1004F00005D0032905D00020CEE72D48CCE72D48B4
:10050000CAE72D48C8E7012907D0002931D00229C0
:1005100005D0032905D00020BEE72848BCE72848BD
:10052000BAE72848B8E7012907D0002923D00229D3
:1005300005D0032905D00020AEE72348ACE72348C7
:10054000AAE72348A8E7012907D0002915D00229E6
:1005500005D0032905D000209EE71E489CE71E48D1
:100560009AE71E4898E71E4896E7032094E71D483F
:1005700092E71D4890E71D488EE71D488CE7C0466E
:100580000010004200180042001C0042001400420B
:1005900000080042000C00420300050003000600B2
:1005A000030007000300010003001E0003001F00FA
:1005B0000300090003000A0003000B000300110000
:1005C000030012000300130003000D0003000E00DF
:1005D00003000F00030017000300180003001900B8
:1005E00003000400030008000300100003000C00D7
:1005F0000300160030B587B00B4B6A4632CB32C2CF
:1006000032CB32C2009B83420BD001239A00694651
:100610005258824206D00133062BF7D1002007B092
:1006200030BD0023D8B2FAE7C44400007047000090
:10063000F0B50A4B1B78002B0CD1094F094E0A4D1F
:100640000024DE515A1914600433182BF9D1012209
:10065000024B1A708000024BC150F0BD9200002086
:10066000940000202D0600009030002000B583B0DB
:1006700009236A46137001335370013393700133B9
:10068000D3700133137101335371034B98476B4699
:10069000185603B000BDC046F505000010B5024B6A
:1006A0001B680020984710BD9400002010B5024B35
:1006B0005B680120984710BD9400002010B5024BE4
:1006C0009B680220984710BD9400002010B5024B93
:1006D000DB680320984710BD9400002010B5024B42
:1006E0001B690420984710BD9400002010B5024BF0
:1006F0005B690520984710BD94000020F0B5DE46E8
:1007000057464E464546E0B591B005000C00160030
:1007100029600800BC4B9847020023680520DB07CE
:1007200006D511B03CBC90469946A246AB46F0BDFA
:10073000236817309B07F4D4B449086A971C012337
:10074000BB4003430B620FA92D27F35D0B701432DE
:10075000D3B202931800AE4B98470298AD4B98471E
:10076000F05D0021AC4B9847F37A6B712423F35C66
:10077000AB712523F35CEB71F37E2B72337F6B72CD
:100780002B6898461800A04B9847143000220E237F
:1007900006A98C4663441A80328A02928023DB01C8
:1007A0009A4200D19EE00FD9C023DB01029A9A42FF
:1007B00000D192E080231B029A4200D01FE1032364
:1007C00006930023079308E080239B019A4200D000
:1007D00015E1102306930F3B079333680593F368E5
:1007E000039373690493337E9B462623F35C9A46F6
:1007F00073689946002B00D1A0E080235B059945E2
:1008000000D184E0737E002B02D0B37E4246937306
:100810002A68029FD369002BFCD10E3306AA9446A6
:1008200063441B8842469381059B039A1343049AB1
:1008300013434A4613431F435B461B021F43534661
:100840005B071F432723F35C002B01D104331F43B5
:10085000737E9B02327F52021343727F1202134354
:100860002422B25C520413432522B25C12041343C7
:10087000B17AF27A114319433389FF2B00D181E019
:1008800080225204174319432C23F35C002B03D11D
:10089000624B9B789B0701D580231F432A68D3694D
:1008A000002BFCD1434659602A68D369002BFCD148
:1008B00043461F600EAB80221A7000225A70DA7015
:1008C0009A70336B0A93736B0B93B36B0C93F36B4C
:1008D00002930D9300270AAE63E008230693073BBB
:1008E00007937AE733680593F36803937369049376
:1008F000337E9B462623F35C9A4673689946002B09
:1009000018D080235B05994501D0002025E02723DE
:10091000F35C002B00D075E7336A1F00C0B2404B78
:10092000984701000E2206AB9C46624438003D4BBE
:10093000984712E008230693002307932723F35CCC
:10094000002B0ED0069B0093079B0E2206A98C4617
:100950006244B16A306A344FB847002800D0E0E6FC
:1009600050E7336A1F00C0B22D4B98470100069B29
:100970000093079B0E2206A88446624438002A4F43
:10098000B847EAE7F37E002B00D17DE78023DB0444
:100990001F4379E72000254B984707E00137042FD4
:1009A0000DD0F9B2BB0098590028F3D0431CF5D004
:1009B0000EA90870000CC0B21D4B9847EEE700234B
:1009C000EB602B616B61AB61EB612B62AB626B62C5
:1009D0000022EB85AB853033EA540133EA5401330E
:1009E000EA540133EA542868074B98470400114938
:1009F000114B9847A400114BE550002091E61023BD
:100A0000069300230793E8E6F50500000004004084
:100A1000D91000004D1000003104000000200041FA
:100A2000F5100000730300009D0300007D0400002A
:100A3000D1110000DD0A00003106000090300020D6
:100A4000C2791C23002A01D118007047C28D92B2CE
:100A5000173B002AF8D10368DA69002AFCD119850E
:100A600002211A7E0A42FCD00023EDE782791C2382
:100A7000002A01D118007047828D92B2173B002ADC
:100A8000F8D10268107E4007F4D5D369002BFCD161
:100A9000538BDBB298061DD0980703D502235383EE
:100AA0001833E7E7580703D5042353831A33E1E7E4
:100AB000D80703D5012353831233DBE7D80603D5C8
:100AC000102353833233D5E79B0603D5202353836A
:100AD0002133CFE7138D0B800023CBE7F8B58000DF
:100AE000624BC5582C68E369002BFCD1237EA67DA0
:100AF0001E403023EB5C3122AF5C1F40F30722D550
:100B0000EB8D9BB2002B1CD0AA6A1378DBB2511C70
:100B1000A962697901290ED09BB2DB05DB0D238523
:100B2000EB8D013B9BB2EB85002B0CD10133237580
:100B30000133A37507E0517809020B430232AA6220
:100B4000EBE701232375B30706D5022323750022A3
:100B50003133EA54FB071AD4730765D5AB8D9BB2CA
:100B6000002B5FD0638BDBB21A0714D43F221340F3
:100B7000002B34D09A0711D51A223223EA54303B85
:100B800063837B0750D528006B6998474CE02800A9
:100B9000EB689847E0E737221340E9E75A0705D5A5
:100BA0001E223223EA542E3B6383EAE7DA0705D597
:100BB00013223223EA54313B6383E2E7DA0605D598
:100BC00042223223EA54223B6383DAE720221A428C
:100BD000D7D021323223EA54123B6383D1E7238DED
:100BE000DB05DB0DDAB2696A0A706A6A511C696258
:100BF0006979012910D0AB8D013B9BB2AB85002BED
:100C000012D10433237500222E33EA54BB070BD5CF
:100C100028002B69984707E01B0A53706B6A013361
:100C20006B62E8E704232375F30604D510232375CC
:100C30002376FB060ED4B30604D520232375237632
:100C40003B070BD4330704D5082323752376BB0653
:100C500008D4F8BD2800EB699847ECE72800AB6999
:100C60009847EFE72B6A28009847F2E7903000207A
:100C700010B5082803D880001C4B1B589F46002045
:100C800032E01B4B18692FE01A4B1B6A9B059B0F28
:100C90001948D84028E0164B586925E0144B1B68CA
:100CA00000209B0720D513491022CB681A42FCD0A4
:100CB0000F4B1A6824231340042B01D00F4813E074
:100CC00000200F4B98470A4B9B681B041B0C584392
:100CD0000AE05023074AD35C00205B0704D5044B8D
:100CE000D86801E08020000210BDC046DC4400004E
:100CF000AC0000200008004000127A00006CDC020A
:100D0000F510000070B50C490B6A047885784078BE
:100D10000122104080014026B34303432A40D20100
:100D200080208343134303222240120203480340DE
:100D300013430B6270BDC04600080040FFFCFFFF7C
:100D4000082803D88000254B1B589F46172044E0F5
:100D5000234A136A02210B43136200203DE0204A1C
:100D6000936902210B439361002036E01C4A138AE9
:100D700002210B43138200202FE0194A938A02219B
:100D80000B439382002028E016490B68022213438C
:100D90000B60134B9A8419000E32CB681A42FCD0B8
:100DA000104A91680E4BD96252689A6200229A8466
:100DB00019001032CB681A42FCD00A4B1B689BB258
:100DC000074A9384002008E0054944228B5C0220F6
:100DD00003438B54002000E00020704700450000D2
:100DE00000080040AC000020F0B5C64600B584B055
:100DF000C222D200214B9A60214A53681E218B43A4
:100E0000536001236A46137000241E4DE0B2694608
:100E1000A8470134252CF9D103A8002444700123EC
:100E2000984683700470184B98470620174B9847D4
:100E3000174B98476B465C7006271F701C725C72DC
:100E40001023019369460320124EB0470320124D30
:100E5000A847124B1C725C729C72DC724346019371
:100E60006B465C701F701C725C7269460020B04754
:100E70000020A84704B004BC9046F0BD0008004024
:100E800000400041D9100000050D0000410D000098
:100E9000A10E0000C50E00007D0F00000004004000
:100EA000064A936908210B4393610122044B1A708F
:100EB00019000B781342FCD17047C0460004004073
:100EC000000C004070B5060004000D782D020543AB
:100ED0004B78002B02D08023DB021D434B7A002B82
:100EE00002D080231B031D434868012810D9431EEC
:100EF000184234D1022830D90223002201325B008B
:100F00009842FBD812023243140080235B031D4336
:100F10000B7A002B02D080239B031D43134A537886
:100F20005BB2002BFBDB124B9847124B1E700F4A33
:100F300053785BB2002BFBDB0C4B9C601A005378A0
:100F40005BB2002BFBDB094A5368802149020B404E
:100F50001D435560084B984770BD0022D2E704023C
:100F6000344380239B021D43D2E7C046000C00405F
:100F7000ED010000080C00402D02000010B5040037
:100F80000B4A53785BB2002BFBDB0A4B98470A4BAA
:100F90001C70074A53785BB2002BFBDB044A516894
:100FA00080235B020B435360044B984710BDC0463F
:100FB000000C0040ED010000040C00402D02000078
:100FC00070B504001A4A53785BB2002BFBDB194B57
:100FD0009847194B1C70164A53785BB2002BFBDB09
:100FE000134E7068C004C00E144B98470500124B96
:100FF0001C707668F602F60F114B1C700C4A537881
:101000005BB2002BFBDB0A4B9C682402240C0D4BCB
:101010009847002E07D1012C07D9210028000A4B40
:101020009847050001E00134E540280070BDC04646
:10103000000C0040ED010000040C0040710C0000A9
:10104000080C00402D020000AD2F000010B5040078
:10105000064B9847064B1C70064A53888021C901ED
:101060000B435380044B984710BDC046ED01000070
:10107000020C0040000C00402D02000010B50400DE
:101080000F4B98470F4B1C700F4A53881B05180FC6
:1010900053880E490B40538053880D490B405380B1
:1010A00011008022D2014B881342FCD106494A88A4
:1010B00003020648024013434B80064B984710BD7D
:1010C000ED010000020C0040000C0040FFF0FFFFAB
:1010D000FFBFFFFF2D02000010B50C78240204436F
:1010E000024B9847A4B2024B5C8010BD7D100000FB
:1010F000000C004010B50400064B9847064B1C70CE
:10110000064B5C882405240F054B98472000054BAF
:10111000984710BDED010000020C0040000C00409B
:101120002D020000C10F000030B5D378002B35D15F
:101130001378802B29D01B06802464022343547823
:101140000225AC4306D19478002C20D18024A4023F
:10115000234341605478013C012C1CD90D042D0C13
:10116000A024E4052C431C4384620D0CD0242406E7
:101170002C431C438462D478002C22D15B031CD501
:101180009378012B1ED0416117E00023D7E7C024DC
:10119000E4022343DDE70D4C2340DFE741600C040C
:1011A000240CA023DB05234383620C0CD0231B06F5
:1011B00023438362D378002B03D15378013B012B67
:1011C00002D930BD8161F8E78160FAE7FFFFFBFFDC
:1011D00010B50A00C1090023002904D14309DB012D
:1011E00005498C4663441F2420400121814018009A
:1011F000024B984710BDC046004400412911000031
:101200007047000010B5054B9847054B9847054BB4
:101210009847054B9847054B984710BDE90D0000CE
:101220005D02000001120000011200000112000026
:10123000FEE70000F8B52A4A2A4B9A4211D01A005C
:10124000294B9A420DD2294A03339B1A9B0801333A
:101250009B000022234822498C58845004329A4231
:10126000FAD1234A234B9A420AD2D34321495B182D
:1012700003218B4304339B18002102C29342FCD10B
:101280001D4AFF211D4B8B439360FD3990235B006A
:101290001B4AD1501B4AD3780325AB430224234376
:1012A000D370D3780C27BB4308263343D370164B37
:1012B000987B30229043202210439873997BB94346
:1012C000314399739A7BAA4322439A730F4A536816
:1012D00080210B4353600E4B98470E4B9847FEE717
:1012E00038470000000000206C00002004000020AF
:1012F0006C0000202031002000ED00E00000000024
:101300000070004100500041004800410040004191
:10131000E5330000812F00000300064A1268002A0E
:1013200004D0044A1068C318136070470249014A88
:101330001160F6E7C4000020205100200120404247
:10134000704780239B014B6000207047012070474D
:10135000002070470300083343600122524282603C
:10136000C36003610023036070470023036170477B
:1013700043684B609A688A609A6851609960086116
:10138000036801330360704730B50C68020008320F
:10139000631C02D1026904E01A0053681D68AC4264
:1013A000FAD253684B6099608A60516008610368A3
:1013B0000133036030BD03694268816891608268CF
:1013C000416851605A68904206D0002202611A6852
:1013D000013A1A601868704782685A60F5E70000A1
:1013E00082B000230193064B1B68013301D072B613
:1013F000FEE772B6019B002BFCD002B07047C046DE
:1014000004000020000000000000000000000000B8
:101410000B4A13681868203080F30988022080F393
:101420001488BFF36F8F3FBCAE4608BC04BC62B6E5
:101430001847C046C046C046C046C046C046C04623
:10144000D02E002010B5031F802464041C60043BD0
:101450001960043B02491960143B1A60403810BD02
:10146000E11300007047000070B5124B1968FF22AD
:1014700012040A431A601968FF2212060A431A600E
:101480000D4D00242C600D4B1C6000200C4B984728
:10149000C8210C4B984701380B4B186007232B6071
:1014A0000A4B1C600A4B98470A4B98470A4B9847CF
:1014B000002070BD20ED00E010E000E018E000E04A
:1014C000C10F0000AD2F000014E000E00400002078
:1014D0001114000095240000E11300008022520541
:1014E000034B1A60BFF34F8FBFF36F8F7047C04637
:1014F00004ED00E072B6044A136801331360BFF3D1
:101500004F8FBFF36F8F704704000020064B1B689E
:10151000002B01D172B6FEE7013B034A1360002B9A
:1015200000D162B67047C04604000020EFF310807F
:1015300072B6704780F3108870470000000000000A
:10154000EFF309800E4B1A6820381060F0C0444653
:101550004D4656465F46F0C008B572B600F09AFF99
:1015600062B60CBC116808681030F0C8A046A946E5
:10157000B246BB4680F309882038F0C81847C046F9
:10158000D02E002010B5074B98470400064B984713
:10159000002803D080225205044B1A602000044B1F
:1015A000984710BD2D1500003522000004ED00E025
:1015B0003515000070B50400430702D007239C4393
:1015C0000834114B9847114B1B68002B10D0104B5F
:1015D0001B68E4180F4A944211D8A34211D20B4A57
:1015E0001568ED180A4B1C600B4B9847280070BD1E
:1015F00007220A4B08339343044A1360E7E70025A8
:10160000F2E70025F0E7C04619220000C8000020DC
:10161000CC2E0020F72D000055230000CC00002028
:10162000002801D072B6FEE77047000010B5040034
:10163000034B9847A46B034B98476042604110BD31
:10164000F51400000D15000070B504001600856B40
:10165000026C002A0BD100202368834204D1606809
:10166000164B9847002363600135A56370BD002EBB
:101670000ED18068124B9847A368226C944663444D
:10168000A360002062689342EED32368A360EBE777
:10169000C0680B4B9847236C5B42E268D218E2604B
:1016A00021688A4203D2626894466344E360002062
:1016B000022ED9D18542D7D0013DD5E76927000058
:1016C0004334000070B582B001900A00846C002C95
:1016D00005D0A16BE36B994203D372B6FEE772B6F5
:1016E000FEE7A16B00268B4202D8300002B070BD2D
:1016F0004523E55C6DB201A920000A4B984706001E
:101700006B1C0AD1636A002BEFD020002430064BFB
:1017100098470028E9D00126E7E701356DB2452357
:10172000E554E2E7491600009525000010B50C00CD
:10173000026C002A0BD0C3689B18C36041688B42BF
:1017400001D30368C360C1682000014B984710BDF6
:1017500043340000F8B50700254B98474523FC5C4F
:1017600064B2002C1CDD234E234D0BE07B6A002B62
:1017700016D038002430A84700280ED1013C64B2AE
:10178000002C0DD0BB6C002BF0D000213800B047EE
:101790000028F3D0194B9847F0E7184B9847EDE72E
:1017A000FF224523FA54164B9847114B9847442380
:1017B000FC5C64B2002C14DD3B69002B11D03D00B1
:1017C00010350D4E06E0013C64B2002C09D03B6997
:1017D000002B06D02800B0470028F4D0074B9847CC
:1017E000F1E7FF224423FA54054B9847F8BDC04661
:1017F000F5140000C516000095250000A526000080
:101800000D15000070B504000D00002821D0174B05
:1018100098472268216CE36B4B43D018606000202E
:10182000A063A2605B1AD318E360FF234422A35491
:101830000132A354002D11D12369002B05D02000C3
:1018400010300B4B9847002805D10A4B98470120D0
:1018500070BD72B6FEE7084B9847F6E720001030DF
:10186000064DA84720002430A847EEE7F5140000F5
:10187000952500000D150000DD1400005513000033
:1018800070B506000D00002801D172B6FEE7080011
:1018900070434C300A4B9847041E0ED0002D03D0E5
:1018A00003004C33036000E02060E66325640121FF
:1018B0002000044B98470023A364200070BDC0465D
:1018C000B515000005180000F0B5CE46474680B5B6
:1018D00085B004000F0001921D0000280CD00029E3
:1018E0000CD0022D0FD04E4B9847002810D1019BF1
:1018F000002B11D072B6FEE772B6FEE7036C002B28
:10190000EFD072B6FEE7E36B012BECD072B6FEE7C8
:101910000026444B98464CE00026FAE72A0039009E
:101920002000414B9847A36C002B0FD029002000CA
:101930003E4B9847002801D03D4B98473D4B984778
:10194000012005B00CBC90469946F0BD636A002B9F
:1019500008D020002430384B98470028EED0344B74
:101960009847EBE70028E9D0314B9847E6E7314B41
:1019700098470020E5E72F4B984701A902A82F4B75
:101980009847002844D1274B9847A36B9946E66BAC
:10199000284B9847B14535D1200010300199284B8C
:1019A00098472000274B9847274B9847002826D078
:1019B0000126C047A36BE26B9342AFD3022DADD09B
:1019C000019B002BD3D0002E02D102A81F4B9847B9
:1019D000184B98471E4B9847124B98474423E35C9B
:1019E0005BB2013302D100224423E2544523E35C7D
:1019F0005BB20133BFD100224523E254BBE70C4B5D
:101A00009847D5E720000F4B98470F4B9847CFE7F3
:101A100020000C4B98470C4B9847002091E7C0469C
:101A2000B1260000F514000049160000C51600009C
:101A3000DD1400000D15000095250000352600007E
:101A40003125000055170000552300001D26000019
:101A50001922000070B5020000210120064B9847B2
:101A6000041E07D0002343600360C36000220021EE
:101A7000024DA847200070BD81180000C918000061
:101A8000F0B583B00400019116001D00002812D0AB
:101A9000019B002B11D0022D14D0284B98470090A9
:101AA000A36BE26B9A422FD800250098244B9847ED
:101AB000280003B0F0BD72B6FEE7036C002BEAD03D
:101AC00072B6FEE7E36B012B1AD072B6FEE7636ACB
:101AD0000125002BE9D0200024301A4B984700281C
:101AE000E3D0002E0AD001233360DEE77B1C5BB21B
:101AF0004522A3540125D8E70125D6E70125D4E7DF
:101B00000E4B98470090A36B4523E75C7FB22A00F9
:101B1000019920000C4B98477B1CE7D1A36C002B4C
:101B2000D5D029002000094B984701250028BCD0BA
:101B3000002EE1D001233360B7E7C0462D15000029
:101B4000351500009525000049160000C516000057
:101B5000F0B5C64600B584B004000F00019200281D
:101B60000AD000290AD0424B984700280BD1019B8C
:101B7000002B0CD072B6FEE772B6FEE7036C002BAA
:101B8000F1D072B6FEE700263A4B98462FE00026C9
:101B9000FAE739002000384B9847013DA5632369D7
:101BA000002B07D020001030344B9847002801D07C
:101BB000334B9847334B9847012004B004BC904600
:101BC000F0BD304B98470020F7E702A82E4B98470E
:101BD00016E000224423E2541DE000224523E25493
:101BE0001EE02000294B9847294B98470126C04703
:101BF000A56B002DCDD1019B002BE2D0002EE4D0AF
:101C0000204B9847234B98471A4B98474423E35C53
:101C10005BB20133DDD04523E35C5BB20133DCD042
:101C2000184B984701A902A81B4B9847002813D1CD
:101C300020001A4B98470028D3D020002430019967
:101C4000174B98472000114B9847114B9847002895
:101C5000CCD10B4B9847C9E720000C4B98470C4B55
:101C6000984720000D4B98470028BFD00020A4E7DC
:101C7000B1260000F51400002D1700009525000086
:101C8000DD1400000D1500001D2600005517000092
:101C90005523000019220000352600002D160000F3
:101CA00031250000F0B585B0041E019104D0036C0D
:101CB000002B03D072B6FEE772B6FEE7504B984792
:101CC000002804D1019B002B05D072B6FEE7002549
:101CD00000264C4F48E000250026FAE7013BA363AD
:101CE0002368002B02D1484B984760602369002B82
:101CF00007D020001030454B9847002801D0444BB6
:101D00009847444B98470125280005B0F0BD002DA9
:101D100001D072B6FEE73F4B9847F5E702A83E4B6D
:101D200098472AE000224423E25431E00022452370
:101D3000E25432E0334B98476068384B98470500CF
:101D4000344B984739E02000354B9847354B98473E
:101D500009E02000324B9847324B98472000324B25
:101D60009847002838D10126B847A36B002BB5D17E
:101D7000019B002BCBD0002ED0D0264B98472B4B6D
:101D80009847204B98474423E35C5BB20133C9D0AA
:101D90004523E35C5BB20133C8D01E4B984701A9D1
:101DA00002A8234B98470028D3D120001E4B984708
:101DB0000028C8D02368002BBCD020002430019913
:101DC0001C4B98472000164B9847164B9847002805
:101DD000C9D10F4B9847C6E7002D00D194E7094BB6
:101DE0009847636A0021002B03D0236B1B680531E1
:101DF000C91A6068104B9847064B9847002583E73F
:101E0000B1260000F514000071280000952500009F
:101E1000DD1400000D1500001D260000D126000075
:101E200055170000552300002D1600001922000050
:101E30003526000031250000E527000070B50400BC
:101E40000D001600114B98474423E35C5BB201334D
:101E50000DD04523E35C5BB201330CD00C4B9847AB
:101E6000A36B002B0BD020000A4B984770BD0022BB
:101E70004423E254EDE700224523E254EEE720003C
:101E8000243032002900044B9847ECE7F514000099
:101E90000D150000551700005D250000084B1B685C
:101EA0001B68002B07D0064B1B68DB68DB685A6891
:101EB000044B1A60704701225242024B1A60F9E744
:101EC000D42E0020842F0020F0B5D6464F4646463B
:101ED000C0B5144B9946144B9846144F144B9A4670
:101EE0004B461B68002B16D0C047FB68DD68281DD9
:101EF000D047104A1368013B13600A4C2368013B2A
:101F000023600D4B9847286B0C4EB0472800B04714
:101F10002368002BE8D10A4B1B68012BE0D9094B41
:101F20009847DDE7442F0020F5140000B82F00206B
:101F3000B7130000402F00200D15000021160000EF
:101F4000DC2E0020DD14000070B504000D00174BDE
:101F50001E68174B18680430164B9847631C13D043
:101F60003419134B1B685C60A64216D8124B1868D4
:101F70000F4B19680431114B9847114B1B689C4259
:101F800012D20F4B1C600FE0002DE9D0084B1968EE
:101F900004310C480C4B984706E00C4B1868044B76
:101FA00019680431054B984770BDC046CC2F0020FE
:101FB000D02E0020B7130000D42E0020891300007B
:101FC000842F0020A42F002071130000D82E0020A1
:101FD000F0B5C64600B584B001900D00029397009D
:101FE00038005B4B9847061E00D181E04C20584BCF
:101FF0009847041E00D178E00663381F3018072385
:10200000984380462A782D33E2542B78002B0DD04C
:1020100001352300353320003C302A781A702A78A5
:10202000002A03D0013501338342F6D100223B233D
:10203000E2540A9F042F00D90427E762E7630026D1
:102040002664231D03931800424DA8472000183032
:10205000A84724610523DB1BA361646266644823EF
:10206000E654029A019940463B4B984720600B9BEF
:10207000002B00D01C60394B9847394A1368013354
:102080001360384B1B68002B35D0374B1B68002B77
:1020900007D1344B1B68DB6AE26A934201D8314BAB
:1020A0001C60324A136801331360E36A304A1268D5
:1020B000934201D92E4A13609800C01880002D4B1E
:1020C000181803992C4B98472C4B9847264B1B68A4
:1020D0000120002B05D0234B1B68DA6AE36A9A4281
:1020E00031D304B004BC9046F0BD3000244B984777
:1020F00001204042F5E71B4B1C601368012BD0D137
:102100001C4F38001F4EB04738001430B04738001D
:102110002830B04738003C30B04738005030B04726
:10212000194B98461800B047184F3800B047184868
:10213000B0471848B0471848B047184B42461A6095
:10214000174B1F60ADE7174B98470120C9E7C04602
:10215000B51500006B13000045140000F5140000D5
:10216000402F0020D02E0020A02F0020502F002034
:10217000542F0020DC2E0020711300000D150000EC
:102180002116000055130000582F00206C2F00204E
:102190008C2F0020B82F0020A42F0020D42E002048
:1021A000D82E0020DD14000010B582B0114B019331
:1021B00000230093642210491048114CA0470128C5
:1021C00003D0431C13D002B010BD0E4B984701281A
:1021D000F7D172B6012252420B4B1A6002320B4BFE
:1021E0001A6000220A4B1A600A4B9847EBE772B656
:1021F000FEE7C046802F002024450000C91E0000D5
:10220000D11F000035290000842F0020A02F0020BE
:10221000CC2F002069140000024A136801331360B8
:102220007047C0464C2F0020014B18687047C046CD
:10223000CC2F0020F0B583B0384B1B68002B60D149
:10224000374B1D6801351D60002D12D1354B1B68C1
:102250001B68002B01D072B6FEE7324A1168324B80
:10226000186810601960314A136801331360304BED
:102270009847304B1B6800249D4233D30024294FDC
:102280003B681B68002B29D0264B1B68DB68DE6887
:1022900073689D4232D3331D01931800264B984733
:1022A000B36A002B03D030001830234B9847F36AF1
:1022B000224A1268934201D9204A13609800C0183C
:1022C00080001F4B181801991E4B98471E4B1B6826
:1022D000F26ADB6A9A42D3D30124D1E70122524247
:1022E000144B1A60184B1B68DA6A93009B189B000A
:1022F000134A9B58012B09D9012407E00D4A1360AA
:10230000F0E7124A1368013313600024104B1B6876
:10231000002B00D00124200003B0F0BD4C2F002082
:10232000CC2F0020D42E0020D82E0020882F002073
:102330009D1E0000842F0020B7130000542F0020A2
:10234000DC2E002071130000D02E0020482F00202A
:10235000D02F0020F8B5304B1B68002B01D172B68E
:10236000FEE72E4B98472C4B1A68013A1A601B68FF
:102370000024002B03D12A4B1B68002B03D1294BCF
:1023800098472000F8BD284D2F002B68002B22D045
:10239000FB68DC6820001830244B9847261D30006D
:1023A000224B9847E36A224A1268934201D9204A95
:1023B00013609800C01880001E4B181831001E4B87
:1023C00098471E4B1B68DB6AE26A9A42DDD3012202
:1023D0001B4B1A60D9E7002C01D01A4B98471A4BB7
:1023E0001C68002C0ED0194F154E012502E0013C4F
:1023F000002C04D0B8470028F9D03560F7E7002258
:10240000114B1A600E4B1B680024002BB7D0104BE9
:1024100098470134B3E7C0464C2F0020F514000064
:10242000402F00200D1500008C2F0020B713000056
:10243000542F0020DC2E002071130000D02E00202D
:10244000D02F00209D1E0000482F002035220000C4
:10245000DD14000010B5041E0FD0094B1B68002BC3
:1024600001D072B6FEE7074B984700212000064BCB
:102470009847064B9847002801D1054B984710BD57
:102480004C2F002019220000491F00005523000096
:10249000DD14000010B5214B1B68002B18D1002261
:1024A0001F4B1A601F4B1B689A00D21892001E49DE
:1024B0005258002A10D1002B08D0013B9A00D218A4
:1024C00092005258002A07D1002BF6D172B6FEE7CF
:1024D0000122134B1A6010BD13489A00D1188900CD
:1024E00041184C6864684C60D21892000832821817
:1024F00094420BD09A00D21892000B498A18526865
:10250000D1680A4A1160074A1360E4E760689A00DC
:10251000D218920004498A185060EBE74C2F002033
:10252000D02F0020542F0020DC2E0020D02E0020A1
:1025300010B50C00002801D172B6FEE7044B1968F3
:102540001831044B984701212000034B984710BDD8
:10255000D02E002089130000491F000070B50C0028
:10256000150000280DD0084B19681831074B984703
:10257000002D01D00124644229002000044B98471B
:1025800070BD72B6FEE7C046D02E00207113000069
:10259000491F000070B5C368DC68002C27D02500F7
:1025A00018352800154B9847154B1B68002B20D178
:1025B000251D2800114B9847E36A124A126893427E
:1025C00001D9104A13609800C01880000E4B1818EB
:1025D00029000E4B98470E4B1B68E26ADB6A00200D
:1025E0009A4203D901220B4B1A60013070BD72B6BA
:1025F000FEE729000848054B9847ECE7B7130000B1
:102600004C2F0020542F0020DC2E002071130000DE
:10261000D02E0020D02F00208C2F0020034B1B68D1
:102620000360034B1B6843607047C046882F00203F
:10263000CC2F002070B506000D0000281BD000290B
:102640001BD0134B9847134B1A6871682B68581CA2
:102650001CD0114800683468844202D001248A42A8
:1026600005D2521A9A420AD300232B6001240B4B45
:102670009847200070BD72B6FEE772B6FEE79B1A5F
:102680002B603000064B98470024F0E70024EEE76B
:10269000F5140000CC2F0020882F00200D1500001D
:1026A0001D2600000122014B1A607047D02F002028
:1026B000054B1B680120002B04D0044B18684342D3
:1026C000584140007047C046A02F00204C2F0020EA
:1026D00070B5041E3CD0C26A1E4B1B68DB6A9A426E
:1026E0002ED28369002B05DB1A4B1B68D96A0523A0
:1026F0005B1A836193009B189B00174AD318626989
:102700009A4205D0134B1B68DB6AE36201201EE08E
:10271000251D2800114B98470E4B1B68DB6AE362AE
:102720000F4A1268934201D90D4A13609800C018ED
:102730008000094B181829000A4B9847012006E031
:10274000044B1B68C06BDB6A98428041404270BDFD
:102750000020FCE7D02E0020DC2E0020B713000064
:10276000542F00207113000070B5041E2CD0184B9C
:102770001B68984201D072B6FEE7036C002B01D1B2
:1027800072B6FEE7013B0364C26AC16B8A421DD088
:102790000020002B17D1251D28000E4B9847E36B16
:1027A000E3620522D21AA2610B4A1268934201D950
:1027B000094A13609A00D3189B000848C0182900E2
:1027C000074B9847012070BD0020FCE70020FAE786
:1027D000D02E0020B7130000542F0020DC2E002044
:1027E0007113000070B5041E0DD0036C002B01D1D5
:1027F00072B6FEE7C26B8A4200D20A00E16A9142D9
:1028000001D0012B00D070BD144B1B689C4201D13C
:1028100072B6FEE7E262A369002B02DB05239A1A77
:10282000A2618B005B189B000D4AD31862699A4223
:10283000E9D1251D28000B4B9847E36A0A4A126824
:10284000934201D9084A13609800C0188000044BD5
:1028500018182900054B9847D5E7C046D02E002010
:10286000DC2E0020B7130000542F0020711300004D
:10287000054B1B68002B04D0034B1A68136C013303
:102880001364014B18687047D02E002010B54160CA
:10289000006191420BD8D21A012483699A4211D265
:1028A000011D094B1868094B984700240AE09A4219
:1028B00002D20124994205D2011D054B1868034B31
:1028C00098470024200010BDD82F00208913000055
:1028D000D42F002070B50E4B98470E4B1B68002B71
:1028E00002D00D4B984770BD0C4D28000C4EB047E0
:1028F0000C4C2000B0470C4B1D600C4B1C600022A0
:102900000C2102200A4B9847024B1860E9E7C046A9
:10291000F5140000083000200D150000DC2F002009
:1029200055130000F02F0020D42F0020D82F0020B6
:102930008118000010B582B00A4B98470A4B1B68FB
:10294000002B0DD0094B019302230093002350224A
:1029500007490848084CA047002801D002B010BD24
:1029600072B6FEE7D5280000083000200C300020A9
:1029700054450000A12A0000D11F000030B585B0E9
:1029800004001D00002814D0134B1868002821D023
:10299000019102920394052915DC104B98470228F7
:1029A00009D00D4B18680023002201A90C4CA04748
:1029B0000EE072B6FEE7084B18680023089A01A9DA
:1029C000074CA04704E000232A0001A9054CA047BA
:1029D00005B030BD0020FBE708300020B126000024
:1029E000C9180000811A0000F0B5D6464F46464689
:1029F000C0B582B08046234B98478246224B1B6865
:102A0000984217D30023424613601F4B52461A6068
:102A1000504602B01CBC90469946A246F0BD002329
:102A200000933A0000212000184CA047002804D150
:102A300072B6FEE7164D174B99462B681A68002AA6
:102A400017D0DB681F68DC68261D3000C8472000EF
:102A5000636A9847E369012BEFD1A369FB189F4292
:102A6000DDD2636024610A4B186831000A4B984735
:102A7000E3E70A4A064910680860136001234246EA
:102A80001360C2E729220000043000207D290000E5
:102A9000D42F0020B713000089130000D82F002086
:102AA000F0B589B0524F534B1B681A68002A0ED0FC
:102AB000DB681C68504B984705A8504B98470500A9
:102AC000059B002B5FD1A04236D200220FE04A4B7B
:102AD000984705A8494B98470500059B002B52D104
:102AE000474B1B681B685A425A41D2B20024611BF3
:102AF000444B1868444B9847444B984700283FD0B4
:102B0000404D434C002205A92868A0470028CAD0A0
:102B1000059B0393002BF5DB079E7369002B01D007
:102B2000301DB84704A8354B9847059B092BE9D8B9
:102B30009B00384AD3589F46344B98472D4B1B680F
:102B4000DB68DE68301D2A4B9847F369012B03D000
:102B5000736A30009847D3E7B369E11823002A006D
:102B600030002D4DA8470028F2D00023009322000A
:102B700000213000294CA0470028E9D172B6FEE7B9
:102B8000274B9847BCE7214B9847B9E7069BB269AA
:102B9000944663441900069B020030001E4CA04777
:102BA0000028AED03000736A9847F369012BA8D192
:102BB000069BB1698C4663441A00002300930021F0
:102BC0003000164CA04700289BD172B6FEE706994C
:102BD000B161002906D041180300020030000E4CFC
:102BE000A0478EE772B6FEE730000E4B984788E7A5
:102BF000B7130000D42F002019220000E92900009B
:102C0000D82F0020083000203D1E00005523000072
:102C1000511B00002C4500008D2800007D2900007C
:102C2000DD1400002116000070B582B005000E0012
:102C300000226B46DA80064C6B46991D2800A0479F
:102C40000028F9D16B4606331B88337002B070BD83
:102C50006D0A000070B505008CB2034E21002800FB
:102C6000B0470028FAD170BD410A0000F8B5134FF3
:102C7000134E144D13E0144C21001448144B984784
:102C8000642200212000134B98470C4B1868002346
:102C900000220021104CA0470220104B9847012130
:102CA00049423868B04728000D4B9847064B1B78BF
:102CB000002BE0D10B480A4B9847E6E77430002020
:102CC000A51C00003C4600001030002060460000BB
:102CD0002135000055340000C918000055240000BB
:102CE000153600005046000010B50248024B9847C8
:102CF00010BDC046A84500001536000010B50248BA
:102D0000024B984710BDC046E8450000153600004C
:102D100010B5C378002B09D0C41C21000548064B10
:102D2000984721000548064B984710BD0548064BBB
:102D30009847FAE7244600002135000010300020B3
:102D400089390000104600001536000010B50378E0
:102D50002D2B07D14378722B07D0692B08D0064B57
:102D6000984710BD044B9847FBE7044B9847F8E79A
:102D7000034B9847F5E7C046E92C0000FD2C000006
:102D8000112D0000F0B59BB00E4C0F4F0F4E0121DE
:102D900049422068B84730000D4B98470D4B1B68DF
:102DA0005A68642101A80C4B984701A80B4B98471F
:102DB0000023002200212068094DA8470220094B6A
:102DC0009847E4E774300020A51C0000FC45000093
:102DD0001536000008000020E53100004D2D0000F0
:102DE000C918000055240000F8B52B4A8023DB05E4
:102DF000136000235360FF21118100219372D3726D
:102E000001242425545501355455013553550135B8
:102E1000535593620535535501355355536113820C
:102E2000D37611761177517613239376517710620A
:102E300080235B03D360194B1363194B5363012346
:102E40005B429363D363174D174B1D601749184BB3
:102E500019601849184B196018492800184B9847F1
:102E6000184F3B6898680021174EB0473B68586878
:102E70000021B0472E683000144B98471F2318409C
:102E80008440134B1C602A68D369002BFCD1336843
:102E9000022213433360F8BDDC300020020016002C
:102EA00002001700A83000208C300020552C0000B4
:102EB00088300020292C00008430002000140042BB
:102EC000FD06000008000020853700006D060000A8
:102ED00000E100E010B582B0962080011A4B9847BF
:102EE00001201A4CA0471A4B18600120A04700226D
:102EF00004210120174B9847002819D00023019383
:102F0000053300930023144A14491548154CA04773
:102F1000431C11D000230193053300930023E422C6
:102F2000114912480F4CA047431C09D002B010BDF4
:102F30000F48104B9847E1E70F480E4B9847E9E7D9
:102F40000E480C4B9847F1E7E92D0000551A000098
:102F500074300020811800006602000074450000F3
:102F6000852D0000D11F0000904500006D2C000051
:102F70005C450000153600007845000094450000CF
:102F800010B5054B9847054B98470548054B9847A2
:102F9000054B9847FEE7C04605120000D52E0000FD
:102FA0006446000015360000A921000000224308F5
:102FB0008B4274D303098B425FD3030A8B4244D301
:102FC000030B8B4228D3030C8B420DD3FF22090243
:102FD00012BA030C8B4202D31212090265D0030B02
:102FE0008B4219D300E0090AC30B8B4201D3CB03F8
:102FF000C01A5241830B8B4201D38B03C01A52413A
:10300000430B8B4201D34B03C01A5241030B8B423B
:1030100001D30B03C01A5241C30A8B4201D3CB0226
:10302000C01A5241830A8B4201D38B02C01A52410B
:10303000430A8B4201D34B02C01A5241030A8B420E
:1030400001D30B02C01A5241CDD2C3098B4201D326
:10305000CB01C01A524183098B4201D38B01C01AA4
:10306000524143098B4201D34B01C01A524103091B
:103070008B4201D30B01C01A5241C3088B4201D3CA
:10308000CB00C01A524183088B4201D38B00C01A77
:10309000524143088B4201D34B00C01A5241411A9E
:1030A00000D20146524110467047FFE701B50020AB
:1030B00000F006F802BDC0460029F7D076E7704759
:1030C0007047C046F0B5CE46474615042D0C2E007D
:1030D00080B50704140C3F0C9946030C7E435D43F6
:1030E000674363437F19340CE4199C46A54203D916
:1030F00080235B029846C4444B4651434343360405
:10310000360C250C24046544A419591849192000CB
:103110000CBC90469946F0BDF0B585B00600039111
:1031200015001C00012A02DC002005B0F0BD0028BB
:1031300004D08369002B01D100F0A2F8264B9C42F9
:1031400012D174686B1E039F01936568002D16D120
:103150002100300000F074FA00280FD0039B9F423A
:10316000E2D000233B7024E01C4B9C4201D1B468A8
:10317000E8E71B4B9C42E5D1F468E3E76568236808
:103180000293019B9D4200D91D002A000A2102984A
:1031900000F04CF9636800280DD0029A0130851ABE
:1031A0005B1B09C42A000299380000F04AF9002389
:1031B0007B550398B9E75B1B6360236838005B1994
:1031C00023602A00029900F03CF9019B7F195B1BE8
:1031D0000193BAD1C5E7C046A0460000C046000032
:1031E0008046000010B513000A0001000248006884
:1031F000FFF792FF10BDC0460800002010B502493D
:1032000000F0CEF810BDC046913C0000002310B580
:10321000040003604360836081814366C28103616F
:1032200043618361190008225C3000F013F9054BFB
:1032300024626362044BA362044BE362044B236386
:1032400010BDC046F13800001939000051390000A6
:103250007D39000070B568254A1E55430E002900CF
:10326000743100F0FFF8041E08D000212A0001602C
:1032700046600C30A060683200F0ECF8200070BDB1
:10328000836913B50400002B28D18364C3640365EC
:10329000134B144A1B6882620193984201D10123A7
:1032A0008361200000F020F86060200000F01CF82E
:1032B000A060200000F018F80022E060042160689F
:1032C000FFF7A4FF01220921A068FFF79FFF022258
:1032D0001221E068FFF79AFF0123A36113BDC046E6
:1032E000E0460000FD310000F8B51E4B07001E68E7
:1032F000B369002B02D13000FFF7C2FF4836B46833
:103300007368013B04D53368002B07D03668F6E7B5
:103310000C22A55E002D0DD06834F2E704213800A0
:10332000FFF798FF30600028F0D10C2304003B60C9
:103330002000F8BD012320005B42E3810233A3811A
:1033400065662560A560656025616561A5610822E7
:1033500029005C3000F07EF86563A563A564E56430
:10336000E6E7C046E0460000F7B548300400002616
:103370000191002C01D13000FEBDA5686768013FB6
:1033800001D52468F5E7AB89012B07D90E22AB5E86
:10339000013303D02800019B984706436835EEE7C8
:1033A000F7B504000700002601914834002C01D134
:1033B0003000FEBD6368A5680093009B013B00934D
:1033C00001D52468F2E7AB89012B08D90E22AB5E48
:1033D000013304D029003800019B98470643683523
:1033E000EBE7000070B500260C4D0D4C641BA410DB
:1033F000A64209D1002601F08FF90A4D0A4C641B40
:10340000A410A64205D170BDB300EB589847013611
:10341000EEE7B300EB5898470136F2E72447000087
:10342000244700002447000028470000C9B2821842
:10343000904201D10020704703788B42FBD00130CD
:10344000F6E7002310B59A4200D110BDCC5CC454FD
:103450000133F8E703008218934200D170471970D6
:103460000133F9E7032370B5CD1C9D4308350600F1
:103470000C2D1ED20C25A9421DD8300000F0D2FC24
:10348000254A14682100002919D1244C2368002BF7
:1034900003D1300000F064F920602900300000F012
:1034A0005FF9431C2CD10C233000336000F0BBFCCF
:1034B00003E0002DDFDA0C233360002070BD0B68C1
:1034C0005B1B1AD40B2B03D90B60CC18256003E0CF
:1034D0008C420ED163681360300000F0A4FC200021
:1034E00007220B30231D9043C31AE7D05A42E25003
:1034F000E4E74B6863600C00EEE70C004968C2E744
:103500000323C41C9C43A042E0D0211A300000F0E9
:1035100027F9431CDAD1C6E7783000207C30002040
:103520000FB40B4B13B51C68002C05D0A369002BFE
:1035300002D12000FFF7A4FE05AB049AA168200089
:10354000019300F0E3FC16BC08BC04B01847C04669
:103550000800002070B505000E00002804D0836923
:10356000002B01D1FFF78CFEAB69AC68002B02D1B8
:103570002800FFF785FE244B9C420FD16C68A3897D
:103580001B0702D52369002B20D12100280000F061
:103590006DFA00281AD00120404270BD1B4B9C429E
:1035A00001D1AC68EBE71A4B9C42E8D1EC68E6E746
:1035B000013B0136A360002B04DAA269934216DBBB
:1035C0000A2914D023685A1C226019703178A36824
:1035D0000029EDD1013BA360002B0FDA22000A3154
:1035E000280000F0D9F9431CD5D00A20D5E72200E5
:1035F000280000F0D1F9431CE8D1CCE70A20236869
:103600005A1C22601870C8E7A0460000C04600009F
:103610008046000010B5034B01001868FFF79AFFC1
:1036200010BDC04608000020092210B58389134050
:103630000022092B02D100F057FB0200100010BD40
:10364000F8B505000C00002804D08369002B01D1D7
:10365000FFF716FE3D4B9C420AD16C680023636065
:103660000C23E25E93B299060CD50120404268E03B
:10367000374B9C4201D1AC68F0E7364B9C42EDD110
:10368000EC68EBE759074AD4D90605D409232B6027
:1036900037331343A381E8E7082633420AD02100D9
:1036A000280000F0F5FA0028DFD1A389A060B34319
:1036B000A381A0610423A2891343A3812369002B62
:1036C00003D12100280000F05FFB0C23E75EBEB2AF
:1036D000B3070FD00123A3811F4B20491868FFF7C0
:1036E00043FE0923A7811E409E4203D121002800EA
:1036F00000F044FA23692269236028006369216A83
:10370000656AA847020060600020824219DCA18936
:10371000824217D120230B43A381013811E0616B52
:103720000029CBD023004433994202D0280000F076
:103730007BFB0020236C606363608342BED0E36B3D
:103740002360F8BD402360600B43A3E7A046000060
:10375000C046000080460000E04600002936000018
:10376000002370B5064C050008002360FDF7D4FD6A
:10377000431C03D12368002B00D02B6070BDC046D2
:103780001C3100204A424A41802310B55200DB0020
:1037900000F002F810BD0000F0B51D004F4B85B0E1
:1037A0001E6804000F000092002E05D0B369002BA4
:1037B00002D13000FFF764FD494B9C4250D1746840
:1037C000009B022B05D0012B00D984E0002D00DAEC
:1037D00081E02100300000F05BFA616B002908D025
:1037E00023004433994202D0300000F01DFB002337
:1037F00063630023A3616360A3891B0603D521696A
:10380000300000F011FBA389364A1340A381009BCE
:10381000022B5AD003AB02AA2100300000F08CFA30
:10382000A3891843A081002D24D1029D280000F017
:10383000EFFA0195071E42D1029B0193AB4239D1A9
:10384000012040420223A2891343A3810023A360E5
:1038500023004733236023610123636105B0F0BD7A
:10386000214B9C4201D1B468AAE7204B9C42A7D1CE
:10387000F468A5E7002FD9D0B369002B02D130003E
:10388000FFF7FEFC009B012B03D1A389009A1A438A
:10389000A2810820A389276027616561184018D09C
:1038A000012018400023984211D06D42A360A56109
:1038B0001800D3E7019800F0ABFA071EC0D08023B0
:1038C000A289019D1343A381D6E70020BAE7A56032
:1038D000C4E7A060C2E701204042BFE70800002023
:1038E000A04600005CF3FFFFC046000080460000D9
:1038F00070B50C000E25495F00F0ACFD002803DB1D
:10390000636D1B18636570BDA389024A1340A381D0
:10391000F9E7C046FFEFFFFFF8B51F008B890500F0
:103920000C001600DB0505D50E23C95E002202231C
:1039300000F0EEF9A389054A28001340A381320064
:103940000E23E15E3B0000F07DF8F8BDFFEFFFFFC6
:1039500070B50C000E25495F00F0DAF9A389421C0E
:1039600003D1054A1340A38170BD80225201134345
:10397000A3816065F8E7C046FFEFFFFF10B50E2397
:10398000C95E00F0E9F810BD031C0A7801311A7015
:103990000133002AF9D17047F8B505000E00140074
:1039A000002804D08369002B01D1FFF769FC224B6A
:1039B0009C422DD16C68A369A360A3891B0731D5F4
:1039C0002369002B2ED023682269F7B2981A636905
:1039D000F6B2984205DB2100280000F059F90028D2
:1039E00026D1A3680130013BA36023685A1C2260E2
:1039F0001F706369984204D0A389DB071AD50A2E89
:103A000018D12100280000F043F9002812D00FE05F
:103A10000A4B9C4201D1AC68CDE7094B9C42CAD10C
:103A2000EC68C8E72100280000F020F80028CAD080
:103A3000012676423000F8BDA0460000C0460000D6
:103A40008046000070B50500080011000022064CF9
:103A500022601A00FCF7A2FB431C03D12368002B51
:103A600000D02B6070BDC0461C310020364B70B5B5
:103A70001D6806000C00002D05D0AB69002B02D19B
:103A80002800FFF7FDFB314B9C420FD16C680C23E3
:103A9000E25E93B219072DD4D90611D4092301206F
:103AA000336037331343A381404270BD284B9C429F
:103AB00001D1AC68EBE7274B9C42E8D1EC68E6E724
:103AC0005B0713D5616B002908D02300443399426A
:103AD00002D0300000F0A8F9002363632422A389F8
:103AE0009343A38100236360236923600823A28991
:103AF0001343A3812369002B0BD1A0218022A3892A
:103B0000890092000B40934203D02100300000F066
:103B10003BF90123A289134011D00023A3606369FC
:103B20005B42A361002023698342BED10C23E25E85
:103B30001306BAD540231343A3810138B5E7920792
:103B400000D46369A360EDE708000020A0460000F0
:103B5000C046000080460000002370B5064C0500FA
:103B600008002360FDF7EAFB431C03D12368002B08
:103B700000D02B6070BDC0461C310020F7B58A898B
:103B800005000C00130760D44B68002B04DC0B6CA1
:103B9000002B01DC0020FEBDE76A002FFAD00023D5
:103BA0002E682B6080235B011A4034D0606DA3899E
:103BB0005B0706D56368C01A636B002B01D0236CCA
:103BC000C01A0200216A00232800E76AB847A189C9
:103BD000431C06D12B681D2B31D82C4ADA40D30761
:103BE0002DD50023636023692360CB0405D5431CD6
:103BF00002D12B68002B00D16065616B2E6000291B
:103C0000C8D023004433994202D0280000F00CF9B8
:103C100000206063BFE70123216A2800B847431CE6
:103C2000C5D12B68002BC2D01D2B01D0162B01D182
:103C30002E60AFE74023A2891343A381ABE7402363
:103C40000B430120A3814042A5E70F69002FA1D0BB
:103C50000B680F60DB1B01930023920700D14B69B7
:103C6000A360019B002B00DC94E7019B3A00216AD2
:103C70002800A66AB047002803DC4023A28913432A
:103C8000DFE7019B3F181B1A0193EAE70100402080
:103C90000B6970B505000C00002B01D1002070BD30
:103CA000002804D08369002B01D1FFF7E9FA0B4B00
:103CB0009C4209D16C680C22A35E002BEED021003F
:103CC0002800FFF75BFFEAE7054B9C4201D1AC6897
:103CD000F1E7044B9C42EED1EC68ECE7A046000013
:103CE000C04600008046000010B5011E05D1054BFE
:103CF00005491868FFF754FB10BD044B1868FFF71F
:103D0000C7FFF9E7E0460000913C000008000020F2
:103D100070B50500080011000022064C22601A0050
:103D2000FDF716FB431C03D12368002B00D02B604A
:103D300070BDC0461C31002070B50E001D000E2362
:103D4000C95E90B01400002907DA00232B60B38904
:103D50001B0611D48023DB000FE001AA00F08EFBCC
:103D60000028F2DBF022029B12021340054A9B1846
:103D70005A4253412B60EDE740230020236010B0EE
:103D800070BDC04600E0FFFFF7B502268B89050035
:103D90000C00334206D02300473323602361012304
:103DA0006361F7BD01AB6A46FFF7C6FF00990700E4
:103DB0002800FFF757FB002808D10C22A35E9A05C4
:103DC000EFD4032293431E43A681E4E70F4BAB627B
:103DD0008023A28920601343A381009B206163613B
:103DE000019B002B0DD00E23E15E280000F058FB54
:103DF000002806D00322A38993431A00012313430A
:103E0000A381A0893843A081CBE7C046FD310000E3
:103E100010B5034B01001868FFF724FB10BDC04626
:103E2000080000207047704770B50500002910D0C9
:103E30000C1F2368002B00DAE4182800FFF7F2FFBC
:103E40001D4A1368002B05D1636014602800FFF73A
:103E5000EAFF70BDA34209D9216860188342F3D1FB
:103E600018685B6841182160EEE713005A68002A61
:103E700001D0A242F9D919685818A0420BD1206884
:103E80000918581819608242E0D110685268411828
:103E900019605A60DAE7A04202D90C232B60D5E7FB
:103EA00021686018824203D110685268411821606D
:103EB00062605C60CAE7C04678300020936810B545
:103EC000013B9360002B05DA9469A34208DBCBB277
:103ED0000A2B05D01368581C10601970C8B210BDA9
:103EE000FFF75AFDFBE7F8B506000F001400D518E0
:103EF000AC4201D1002007E021783A003000FFF702
:103F0000DDFF0134431CF3D1F8BD0000F0B59FB0D4
:103F100006000F0014000593002804D08369002BCD
:103F200001D1FFF7ADF97F4B9F425CD17768BB8928
:103F30001B0762D53B69002B5FD0002306AD6B6188
:103F400020336B761033AB760294029C2378002BDF
:103F50005DD1029BE31A04930DD0049B029A3900B1
:103F60003000FFF7C0FF431C00D1CCE06A69049B1E
:103F7000944663446B612378002B00D1C3E0012297
:103F8000002352426A6002A95432521801342B6055
:103F9000EB60AB601370AB65217805226248FFF7D8
:103FA00045FA631C9C46002835D12968CB0604D508
:103FB000532302AA20309B1818700B0704D55323F3
:103FC0002B2002AA9B18187023782A2B2CD00020B3
:103FD0000A21099B2278303A092A00D86BE0002890
:103FE0002AD0099328E0514B9F4201D1B7689EE740
:103FF0004F4B9F429BD1F76899E739003000FFF79C
:1040000035FD002899D0012040421FB0F0BD252B7E
:104010009FD001349AE7444B2968C01A012383409A
:104020000B432B606446B7E7059B181D1B68059082
:10403000002B3ADB0993644623782E2B0BD163784F
:10404000621C2A2B3FD1059B02341A1D1B68059266
:10405000002B35DB0793217803223648FFF7E6F97A
:10406000002807D0334B2A68C01A402383401343EB
:104070002B6001342178631C06222F480293297695
:10408000FFF7D4F9002844D02C4B002B2FD12968FE
:10409000059B0722C90528D59B1893430833059330
:1040A0006B69039A9B186B614FE75B42EB600223DD
:1040B0000B432B60BFE74B4301349B18012089E77A
:1040C00001235B42C6E7002314000A201A006B603C
:1040D00021783039092903D9002BBCD00792BAE7DF
:1040E0004243013452180123F2E70733D5E705AB09
:1040F00000933A00124B2900300000E000BF03900B
:10410000039B0133CCD1BB895B0600D57BE70B98C1
:104110007BE705AB00933A00094B2900300000F023
:104120007FF8ECE7A0460000E4460000C04600002F
:1041300080460000EA460000EE4600000000000055
:10414000E73E0000F7B5150001938A680B690090FF
:104150000C00934200DA130022002B6043321278E5
:10416000002A01D001332B6023689B0602D52B68FF
:1041700002332B60062723681F4027D023004333D8
:104180001B785A1E93412268920630D4220001996E
:1041900043320098089EB047431C25D00623206870
:1041A0002A68E16803400025042B03D18D1AEB43F4
:1041B000DB171D40A3682269934201DD9B1AED18AD
:1041C0000027BD4220D1002010E00137E3682A68B3
:1041D0009B1A9F42D2DA22000123193201990098DA
:1041E000089EB047431CF0D101204042FEBD302064
:1041F000E1184331087021005A1C45310978A21892
:10420000433202331170C1E7220001231A320199AF
:104210000098089EB047431CE6D00137D1E7000064
:10422000F0B58BB006920A004332079305900492D2
:104230000A7E0C00109B6E2A00D18FE017D8632AEB
:104240002CD008D8002A00D199E0582A54D0260052
:104250004236327029E0642A01D0692AF7D12168F8
:104260001A68080623D5111D1960156825E0732A00
:1042700000D188E008D86F2A29D0702AE7D12022FF
:1042800009680A43226003E0752A20D0782ADED12B
:1042900022007821453211706C4A30E00E001A6815
:1042A0004236111D196013683370012379E0490605
:1042B000D9D5111D19600023D55E002D03DA2D23F9
:1042C000049A6D421370624B0A2703932FE0206813
:1042D0001968050603D5081D18600D6805E040063D
:1042E000F9D50D68081D1860ADB2594B0827039326
:1042F0006F2A18D00A2716E045310A70544A0392F3
:104300001A682168101D18601568080622D5CB07A9
:1043100002D52023194321601027002D03D120232B
:1043200022689A4322602300002243331A70636894
:10433000A360002B5CDB0422216891432160002DE7
:1043400058D1049E002B64D02600039B42361B7874
:1043500033705EE04806DAD5ADB2D8E709681A686E
:10436000080605D5111D1960136862691A6006E018
:104370004906F7D5111D19601368A28A1A80002317
:10438000049E236154E01A68111D1960166800210B
:1043900062683000FFF74AF8002801D0801B606097
:1043A000636823610023049A137041E0236932009B
:1043B00006990598079DA847431C43D0236800250C
:1043C0009B070FD4099BE06898423DDA18003BE058
:1043D00022000123193206990598079EB047431C15
:1043E00030D00135E368099A9B1A9D42F0DBE9E77A
:1043F000002DA9D0049E28003900FEF75DFE039B26
:10440000013E5B5C280033703900FEF7CFFD051ECE
:10441000F1D1082F09D12368DB0706D5636822692B
:10442000934202DC3023013E3370049B9B1B2361CB
:10443000079B09AA00932100069B0598FFF782FEBF
:10444000431CB3D1012040420BB0F0BD0647000031
:10445000F546000070B50500080011000022064C6A
:1044600022601A00FBF778FE431C03D12368002B5F
:1044700000D02B6070BDC0461C310020002370B5F9
:10448000064C0500080011002360FCF75AFF431C8E
:1044900003D12368002B00D02B6070BD1C3100209D
:1044A000002370B5064C050008002360FCF74EFFA2
:1044B000431C03D12368002B00D02B6070BDC04685
:1044C0001C31002000080042000C00420010004295
:1044D0000014004200180042001C0042820C000040
:1044E0007E0C00007E0C0000E40C0000E40C0000D8
:1044F000960C0000880C00009C0C0000D20C000000
:104500006C0D00004C0D00004C0D0000D80D00009B
:104510005E0D00007A0D0000500D0000880D0000B7
:10452000C80D000049444C45000000008C2B0000E1
:104530008C2B00008C2B0000042B0000CE2B0000E5
:10454000E82B00008C2B00008C2B0000042B0000BB
:10455000CE2B0000546D7220537663004661696C67
:10456000656420746F2063726561746520517565A0
:1045700075650000525800004572726F20637269C1
:10458000616E646F20726563656976657200000014
:10459000575200004572726F20637269616E646FDA
:1045A0002077726974657200496E76616C69642067
:1045B000636F6D6D616E640A557365202D72207492
:1045C0006F20726561642066696C650A2D69206DD3
:1045D00065737361676520746F20777269746520F5
:1045E0006D6573736167650052656164696E67200C
:1045F0007468652066696C652E2E2E0045736372A3
:1046000065766120756D20636F6D616E646F3A0031
:104610004D65737361676520697320696E76616C9F
:104620006964000057726974696E6720746F206254
:1046300075666665723A20257300000044656E74E5
:10464000726F20646F2073656D616661726F000028
:104650006275666665722076617A696F0000000097
:104660002573000057656C636F6D6520746F206D56
:104670006963726F54657874456469746F72210060
:10468000000000000000000000000000000000002A
:10469000000000000000000000000000000000001A
:1046A000000000000000000000000000000000000A
:1046B00000000000000000000000000000000000FA
:1046C00000000000000000000000000000000000EA
:1046D00000000000000000000000000000000000DA
:1046E0000C000020232D302B2000686C4C006566E8
:1046F0006745464700303132333435363738394133
:104700004243444546003031323334353637383948
:104710006162636465660000F8B5C046F8BC08BC19
:104720009E467047DD000000F8B5C046F8BC08BCE6
:084730009E467047B500000031
:1047380001000000AAAAAAAA0C000020000000009C
:10474800A0460000C04600008046000000000000AF
:104758000000000000000000000000000000000051
:104768000000000000000000000000000000000041
:104778000000000000000000000000000000000031
:104788000000000000000000000000000000000021
:0C47980000000000000000000000000015
:0400000300001235B2
:00000001FF
