S00D000046494E414C2E73726563AD
S1130000885F0020514F00004D4F00004D4F00000D
S113001000000000000000000000000000000000DC
S11300200000000000000000000000007551000006
S11300300000000000000000515200009552000032
S11300404D4F00004D4F00004D4F000005150000BE
S11300504D4F00004D4F00004D4F00004D4F00002C
S11300604D4F0000B9430000C9430000D9430000CC
S1130070E9430000F9430000094400004D4F00002B
S11300804D4F00004D4F00004D4F00004D4F0000FC
S11300904D4F00004D4F00004D4F00004D4F0000EC
S11300A04D4F00004D4F00004D4F00004D4F0000DC
S11300B00000000010B5064C2378002B07D1054B37
S11300C0002B02D0044800E000BF0123237010BDC0
S11300D09C00002000000000388E0000084B10B582
S11300E0002B03D00749084800E000BF0748036815
S11300F0002B00D110BD064B002BFBD09847F9E72D
S113010000000000A0000020388E0000388E00009F
S11301100000000010B5074B19682223CB5C5A1E5F
S11301209341DBB24A7C096803480078034CA0473A
S113013010BDC046B8000020C10000208D0E000094
S113014010B50423002801D0180010BD384B197ACB
S1130150CA090023002A04D14B09DB01354A94461D
S11301606344186A1F220A4001239340184210D0A6
S11301702F4B9B7B012B04D004222D4B9A7302231B
S1130180E2E72D4B1B78002BF6D000222B4B1A6094
S1130190F2E7274B9A7B042A05D0012A24D00323B3
S11301A0032AD1D036E0033A9A73244B1B68002B00
S11301B008D00022204B1A70FA208000204B984768
S11301C00223C1E701241C4B1C7000201D4B9847DF
S11301D0FA2149011C4B9847FA239B005843174BBB
S11301E058601C600223AFE7134B1B78002B07D029
S11301F0124B1A680223D203A6D500220F4B1A60B1
S11302000B4B02229A73114A1A6001225A7400217C
S11302102132995400220E4B1A70054C0D4B1C6070
S11302200D4B9847A37B023B5A425341DBB28BE709
S11302300000002000440041C000002010E000E065
S1130240E1120000DD4C0000316E0000801A06004F
S1130250C1000020B800002015010000F8B5094DC8
S1130260094F0A4E00210A48B847041E07D0B04778
S1130270FF23034203D0013D002DF3D100242000CD
S1130280F8BDC046410D0300D1100000E910000084
S11302900D1B000010B582B00C4B1B689989090432
S11302A00123009310220A480A4CA047002801D1D8
S11302B002B010BD054B186812300121064B984757
S11302C00028F5D0054B9847F2E7C046B800002057
S11302D009110800410F00006D110000F911000020
S11302E010B5044B1B78002B00D010BD0020024B2E
S11302F09847FAE7C1000020E10E000010B504227F
S1130300034B9A73FB32034B1A70034B984710BD8F
S113031000000020C1000020810D0000F0B5C64699
S113032000B588B0CB4B98470400012806D0CA4BCF
S11303309847200008B004BC9046F0BDC74B1B682A
S11303400122DA7300221A749A81C54B984700215E
S113035088204001C34B9847002807D1BF4B1B6836
S113036003229A73BC4B98470324E2E7D521490042
S1130370BD48BC4B98470026002825D1B74B1B68C5
S1130380DB7BDB0700D5EBE1B44B1B68DA7B09238D
S11303901340012B0FD180218900B448B14B9847F9
S11303A00028DBD0AD4B1B68DB7BDB0703D5B04BF0
S11303B098470028D2D0AF4B9847A84B1B6800221F
S11303C09A73A54B9847B4E7AB4B9847431C00D1AD
S11303D0C4E10005000DD5235B0001369842BDD170
S11303E0CCE70021A5489F4B9847002819D19B4B87
S11303F01B680222DA73002188204001994B984738
S11304000028ABD09E4D974F9B4E00219D48B84786
S11304100028A3D0B047C3077DD5013D002DF4D1FA
S11304209CE7954B9847430005D58C4B1A68D37BC2
S113043008210B43D373002193488A4B9847002823
S11304408CD0864B1B68DB7BDA0700D4A4E18F4B8E
S11304509847002882D0814B1A68537D07211940A0
S113046089008B480858FA21890041435B061B0F19
S11304709B0088481B584B431360937C9B0900D016
S11304803CE1917E8911537E9B00107E80020343E0
S11304900B43107FC011D17E490008431B051B0D7F
S11304A001330721014002318B40D07D0F210140EF
S11304B08B409B0A5360918909047748694B98479C
S11304C0002800D14AE70123009308220021734841
S11304D0734DA847002800D140E7012106A8714BBD
S11304E09847002800D139E76F4B9847002800D17E
S11304F034E706AB1B780F221340012B00D119E11E
S1130500002B00D109E1022B00D118E1534B1B68E9
S113051010221A7405E100215848524B98470028CC
S113052000D11BE7544B9847C023DB0518408023B8
S1130530DB05984205D1494B1A68D17B08230B434C
S1130540D37300215048474B9847002800D105E752
S11305504E4B9847002800D100E7404B1A68937C23
S11305609B061B0F022B00D1A8E007D9032B00D157
S1130570A7E0042B04D14023137403E0012B66D0BD
S113058012231374537D5906090F89000720034071
S11305909B003F481858FA239B004343434809589B
S11305A04B431360917E8911537E9B00107E800221
S11305B003430B431B051B0D3D498B420FD0107F9A
S11305C0C011D17E490001430133072001400231AB
S11305D08B40D17D083001408B409B0A5360137CD3
S11305E03F2B7BD9002100910123802292003148C6
S11305F02B4DA847002800D1B0E600252E4E05A8B3
S1130600B047002800D1A9E60135ADB2322DF6D1AC
S1130610124B19688A7E92114B7E9B00097E8902D7
S11306200B4313431B051B0D214A934254D1224E05
S113063006A8B047002800D190E60135ADB2352DAB
S1130640F6D9064B1A68069B5B08536044E01423F2
S1130650137497E741010000E1020000B800002094
S1130660090F0000D110000008550000101100000F
S11306705D02000015010000E91000003A050000C9
S1130680EF1B0000011100003B1100009502000067
S11306905C850000788500003711000033110800E4
S11306A0410F00006D110000F91100001C850000CD
S11306B0FF0F000008110800F51000002223137436
S11306C060E7302313745DE706A8364B984700288B
S11306D000D143E60135ADB27F2DF5D980218900E3
S11306E03148324B9847002800D137E6304B9847C1
S11306F0002800D132E62F4B98475EE6D07E937EE9
S11307001B02517E09040B4303439B025B088021B7
S113071089008C4663445360CDE6274B1B68102246
S11307201A74254B1B68DB7B09221340012B00D074
S113073038E630E6204B1B681A221A74F1E706AB40
S11307409B78DB09012B04D11B4B1B6830221A74E4
S1130750E7E7194B1B6820221A74E2E700260DE62E
S1130760731E9E41B3070393144D104FB846144EA5
S113077000211448B847002800D138E603991248EC
S1130780C047002800D132E6B047C30700D428E6AA
S1130790013D002DECD12AE609221340012B00D0A3
S11307A009E6F8E5F510000010110000D110000072
S11307B05D02000015010000B8000020EF1B0000DE
S11307C0E9100000371100002911000010B5064B94
S11307D098470023002801D0180010BD034B984708
S11307E0034B1B68DB7BF7E741010000E1020000DB
S11307F0B800002010B5064B98470023002801D00C
S1130800180010BD034B9847034B1B685B68F7E760
S113081041010000E1020000B80000200020704700
S113082070B582B00E001500164B9847041E02D016
S1130830200002B070BD144B9847002817D0012D3A
S113084019D91248124B1B68DB7B1B0700D47602B4
S1130850012300932B008022920031000D4EB047FB
S113086000280AD00C4B1D800C4B1D80E0E70C4B7C
S113087098470534DCE70B48E4E7094B984705241F
S1130880D6E7C046410100005D02000012111000CD
S1130890B8000020410F0000BC000020BE00002072
S11308A0E10200001111080010B50C00074B984735
S11308B0002804D10022064B1A80053010BD044ADA
S11308C013881C1B14800020F8E7C0466D1100003B
S11308D0BC00002010B50400144B984705230028E1
S11308E001D1180010BD002C10D00022104B1A802A
S11308F0104B1B88012B0FD000210F480F4B98473A
S113090000280DD00E4B98470023EAE7084B1A88BD
S11309100023002AECD0E4E7094B98470023E0E7E2
S113092000210548054B9847ECE7C046F911000043
S1130930BC000020BE0000200C310000D1100000DB
S1130940E102000070B582B00E001500114B98470B
S1130950041E16D1012D17D90F48104B1B68DB7BE1
S11309601B0700D47602012300932B0080229200FF
S113097031000B4EB047002808D00A4B1D800A4BAB
S11309801D80200002B070BD0848E6E7084B984778
S11309900524F6E74101000019911000B800002079
S11309A0410F0000BC000020BE0000201891080088
S11309B0E102000010B50C00074B9847002804D151
S11309C00022064B1A80053010BD044A13881C1BF4
S11309D014800020F8E7C046FD110000BC00002090
S11309E010B504000E4B98470523002801D11800C8
S11309F010BD002C0AD000220A4B1A800A4B1B8817
S1130A00012B09D0094B98470023F0E7054B1A88BE
S1130A100023002AF2D0EAE7044B98470023E6E7D4
S1130A207D120000BC000020BE000020E102000096
S1130A3010B504000F4B9847012819D0002803D0A3
S1130A40022810D0012010BD0B4B1B5D0220002B8F
S1130A50F9D12000094B9847030003201840434272
S1130A6058414000EFE70022034B1A550220EAE701
S1130A700320E8E71D030000C4000020CD070000A8
S1130A8010B50020014B984710BDC046310A000044
S1130A9070B504000D00044B9847400001382860ED
S1130AA02000024B984770BDF5070000310A000092
S1130AB010B501000020014B984710BD910A0000B9
S1130AC010B50020014B984710BDC0461D0800001A
S1130AD010B5140001220C4B9847002804D00238AA
S1130AE043425841013010BD01212000074B984773
S1130AF003000120002BF6D10020054B9847431E2C
S1130B009841C0B2EFE7C04621080000A9080000E0
S1130B10D508000010B50A0001000020014B9847D9
S1130B2010BDC046D10A000010B5140001220C4BC0
S1130B309847002804D0023843425841013010BD80
S1130B4001212000074B984703000120002BF6D118
S1130B500020054B9847431E9841C0B2EFE7C046BA
S1130B6045090000B5090000E109000010B50A00BC
S1130B7001000020014B984710BDC046290B00001E
S1130B8000B583B06B46D91DFF230B7001220B48BF
S1130B900B4B98470B4B1B88012B0AD0FC226B464E
S1130BA09A7101226B46991D0448054B984703B07E
S1130BB000BDFE226B469A71F3E7C046C8000020D0
S1130BC0251A00000C010020F0B583B06B46DC1D33
S1130BD0FF232370124E012221003000114DA8473B
S1130BE0FF23012221003000A847FF230122210016
S1130BF03000A8470C4C6B46DD1D094E094F2B787D
S1130C00FF2B09D0FF23012229003000B847013C03
S1130C10002CF4D1002000E0012003B0F0BDC04658
S1130C20C800002015180000400D030070B582B004
S1130C30144B1C88012C23D0134B1988134B1868B0
S1130C40134B98470123844202D9180002B070BDA7
S1130C506B46DC1DFF2323700E4E01222100300061
S1130C600D4DA847FD232370012221003000A84721
S1130C700A4B9847031EE8D10521094A1170E4E79D
S1130C800123E2E70C0100200401002014010020EC
S1130C90316E0000C8000020251A0000C90B0000B6
S1130CA00B010020F0B583B000226B46DA71144CBE
S1130CB06B46DD1D134E144FFF2301222900300023
S1130CC0B8472B780F22190091430A1E09D0FE2B36
S1130CD013D0013C002CEFD104220C4B1A700020DD
S1130CE00CE05B0704D00732084B1A70002005E0C3
S1130CF00B22064B1A70002000E0012003B0F0BD67
S1130D0020A10700C8000020151800000B010020D6
S1130D1030B583B001A901235B420B80144D02223C
S1130D202800144B98476B46DC1DFF230122210049
S1130D302800114DA847227811231340012B05D018
S1130D4001220E4B1A70002003B030BD1E231A403E
S1130D50042A0BD00A2A04D1023A084B1A70002044
S1130D60F2E70A22054B1A700020EDE70120EBE7B9
S1130D70C8000020251A0000151800000B010020EF
S1130D8070B590B00025304B1D700FA90D70012671
S1130D904E708D7025202D4B984701AC267002951E
S1130DA0039525746574A674E67425752423E554A7
S1130DB00C22002107A8264B984780235B02E3609E
S1130DC0244BA362244BE362244B2363244B6363CD
S1130DD0244BA361244D220024492800244B984726
S1130DE02C682000234B98471F2318408640224B31
S1130DF01E602A68D369002BFCD1236802221343A6
S1130E0023601E4A0023537093701D4908781070A4
S1130E101C4C20706370A370012269464A708B7069
S1130E200A700A4B98472278D1090023002904D17B
S1130E305309DB0114498C4663441F2111400122EC
S1130E408A409A6110B070BD0B010020B13F0000D0
S1130E50AD74000003000400030005000300060055
S1130E6003000700801A0600C800002000080042A2
S1130E70011600008943000000E100E01801002091
S1130E80240000200801002000440041F8B50700B8
S1130E9000220D4B1A700C000C4B994200D91C0017
S1130EA00B4D0C4E01E0E308E41A21002800B04782
S1130EB01728F8D07900CF190749C9190122044825
S1130EC0064B9847F8BDC0460B0100208096980059
S1130ED0C800002049150000080100203119000055
S1130EE010B50022044B1A70410008180349091870
S1130EF00348044B984710BD0B0100200801002053
S1130F00C80000203119000070B582B0FF226B4682
S1130F10DA710022074B1A700A24074E074D01228A
S1130F206B46D91D3000A847013CE4B2002CF6D131
S1130F3002B070BD0B010020C8000020251A00007B
S1130F40F0B5C64600B586B0804600920193FF22F4
S1130F500F2302A8844663441A700022534B1A706C
S1130F6004AB3F3240460240402002431A700A0E4E
S1130F705A700A0C9A700A0ADA7019710027002351
S1130F8004A90822092411E07600F6B20138C0B29F
S1130F90002808D05B00DBB21D0075402D06F3D598
S1130FA06340DBB2F0E70137052F02D07E5C10000E
S1130FB0F0E75B000122134304AC63713C4E012251
S1130FC00F2102AB9C46614430003A4FB8470622D9
S1130FD021003000B84702ABD91DFF230B7001225A
S1130FE03000354EB047072402ABDE1D304F324D82
S1130FF0FF23012231003800A84733785AB2002A6F
S11310000BDA013CE4B2002CF2D10222274B1A7015
S1131010002006B004BC9046F0BD284A13601A07AD
S11310201AD45A071DD4012293431FD143469B046B
S113103020D443469B0525D443465B052BD4204B43
S11310406A4612881A801F4B6A4692881A800022C8
S11310501D4B1A600120DCE70622144B1A70002095
S1131060D7E70922114B1A700020D2E70F4B1A70F0
S11310700020CEE7154B98470028DAD103220B4B0A
S11310801A70C6E70D4900230B60FF33012208489C
S1131090094EB047D0E7094EFF230422310004482B
S11310A0054FB84733681BBA3360C8E70B0100200B
S11310B0C8000020251A00001518000010010020A7
S11310C0040100200C01002014010020C90B0000C1
S11310D010B582B0002300930022024CA04702B056
S11310E010BDC046410F0000014B18687047C04650
S11310F01001002010B584B001900022144B1A7026
S1131100144B1988144B1868144B9847002903D1C1
S1131110134B9847002810D0FF23042201A911483B
S1131120114CA0470C4B1A68101D1860094B198804
S11311300A4B98470120002901D004B010BDFF23B9
S1131140022203A90748084CA0470120F5E7C0463E
S11311500B01002004010020140100203D6F000059
S1131160A50C0000C800002015180000F0B5DE46EC
S113117057464646C0B582B083460022174B1A70C4
S11311804C1EA4B2002926D00026154B9A46154FB2
S1131190D0478046002817D03A885B469919FF2328
S11311A01148124DA8473B88F618114A11688C461D
S11311B063441360FF23022201A90B48A847013CA2
S11311C0A4B20C4B9C42E3D1404602B01CBC9046F6
S11311D09A46A346F0BD01239846F5E70B0100208B
S11311E0A50C000004010020C80000201518000010
S11311F014010020FFFF000001207047F0B5C6462F
S113120000B580460022154B1A700025144F154E68
S113121000E021004C1EA4B200291BD0B84732883C
S1131220434659191048114B98473388ED18104A12
S113123011688C46634413600E4B984700280AD00B
S1131240002CE6D00C4B98470028E2D10522034B32
S11312501A7000E0012004BC9046F0BD0B01002090
S1131260810B000004010020C8000020251A0000A2
S113127014010020110D0000C90B000010B5054B2E
S11312809847002803D10522034B1A7010BD034B65
S11312909847FBE7C90B00000B0100202D0C000050
S11312A070B50020084B98470500084CFA218900C6
S11312B0A047074B186007492800A047064B186051
S11312C00522064B1A6070BDDD4C0000316E000033
S11312D02800002040420F002C00002010E000E015
S11312E030B5084B1C68084A0025802149020138A2
S11312F007D3002CFBD05460956013680B42FCD0DC
S1131300F5E730BD2800002010E000E00168082265
S1131310054B1A600268937A5BB2002BFBDB0B88E7
S1131320022213430B80704700E100E010B502680D
S1131330082480230749CC5001688B7A5BB2002BC8
S1131340FBDBC12393711372138802218B43138037
S113135010BDC04600E100E070B504000568074B0D
S113136098470023238263822268937A5BB2002B1E
S1131370FBDB2B88012213432B8070BD2D1300004F
S113138010B5CB88C2889A1A92064B799B050C79C2
S1131390640423438C782403234313430279002AEF
S11313A005D1CA78002A02D0802252021343487819
S11313B080010A781043184310BD10B58B0EC48801
S11313C01B19D3808B011B0F53718B02DB0E13711E
S11313D00379002B0CD10B041B0F9370CB03DB0F91
S11313E0D37088093F23184050701940117010BD04
S11313F0CB03DB0E9370F4E710B50A000368417960
S1131400002906D0598849040BD519690A4B984715
S113141010BD0A4959800468A17A49B20029FBDB4E
S1131420F3E75988C0242402214359800468A17A2F
S113143049B20029FBDBE8E7BB1300000080FFFF93
S113144070B50D0014001723012A01D9180070BDCE
S11314500668064B9847B37A5BB2002BFBDBE400CB
S11314603419A0612B7A23770023EFE7811300005E
S113147030B583B00500140001601C4A9369202133
S11314800B43936101A902230B700420184B984766
S11314900420184B98472800174B984723792B7141
S11314A0E3786B71E388EB80144B1D602A68238812
S11314B02179002917D008210B43A178002901D0F4
S11314C080210B431380E378002B04D053888021C0
S11314D0C9010B4353802100083100222800084B26
S11314E0984703B030BD48210B43E6E700040040B1
S11314F0F54D0000694D000059130000CC3E00205A
S11315004114000010B50F4B1A681468518A138AED
S11315101940207AE379034058B2002806DBDB0740
S113152003D5CB070AD40123237210BD8B0702D441
S113153080232372F9E7D3689847F9E793689847BB
S1131540F1E7C046CC3E002070B582B005000C0027
S113155000226B46DA8006683000244B98471F232C
S113156018401E3B8340802221498B502A68D3694E
S1131570002BFCD18F3333753376336802229343C7
S113158033602868C369002BFCD11A4B9847143088
S1131590C0B2194B984701006B469A1D2000174BA7
S11315A09847041E03D01724200002B070BD6B4678
S11315B006331B7833732E68F369002BFCD130009B
S11315C00A4B98471F2318401E3B8340084A136068
S11315D02A68D369002BFCD1336802221343336099
S11315E02A68D369002BFCD1DEE7C046894300009A
S11315F000E100E011430000114E00008F400000A4
S1131600F0B58BB005000C00160029600B681C2097
S11316109B0701D50BB0F0BD0B681738DB07F9D475
S113162008006F4B98476F4A116A871C0123BB401F
S11316300B43136209A92427F35D0B701430C3B262
S113164001931800684B98470198684B9847F05DE0
S11316500021674B98473378012B3FD03378002B18
S113166003D123680822134323602B000C33290081
S11316702831002204C38B42FCD10023EB62AB620D
S11316800024AB862B863633EC540133EC540133FF
S1131690EC54353B6B722C712868514B984707000A
S11316A05449554B9847BF00544BFD502F6804AB29
S11316B080221A705C707F3A9A70DC703378002B49
S11316C002D1002204AB9A70B36A0593F36A0693BD
S11316D0336B0793736B089300240BE023680C228D
S11316E013432360BAE73800454B98470AE00134B6
S11316F0042C10D0E1B2A30002AA0C201218D05876
S11317000028F0D0431CF2D004A90870000CC0B229
S11317103C4B9847EBE733786B71337CAB71B37C0C
S1131720EB71337D2B72002202ABDA803378012B0C
S113173012D03378002B26D1B069B28B7B6AF17F4B
S11317400904B47F2143194379622023F35C002BFD
S11317501BD040231A4318E02868214B98471430C3
S1131760C0B2294B9847010002AB9A1DB069274BC0
S1131770984703001720002B00D04BE702AB063339
S11317801B783B73D5E7002200207368B1680B43D4
S1131790F1680B430343317C0A43717C002903D174
S11317A01B498978890701D580210B43B17C002925
S11317B002D0802189020A43F17C002902D08021D1
S11317C089000A43317D002902D0802189010A431E
S11317D039680B433B607B681A437A60002019E741
S11317E01143000000040040F54D0000694D000065
S11317F04D410000351C00004D430000F43E002024
S113180099410000ED4E0000114E00008F40000091
S113181000200041F0B5D6464F4680B583B08C46D3
S11318203825465D333D052E75D01235002A72D019
S1131830C4790535002C6ED04479002C03D104689A
S1131840257EA9070AD4013A94B200260422022173
S113185089460127DB05DB0D9A4637E0022525760C
S1131860F1E701680B7E3B42FCD00B7E3B4209D082
S113187053468B622DE00B7E4D462B4238D10B7EB6
S1131880134245D001680B7E1342FCD00B7E1342F9
S113189040D04B8B00250195134202D04A831E236E
S11318A001938379012B27D08B6ADBB2019900293C
S11318B037D1751CADB261468B55817901291FD092
S11318C02E00013CA4B2184B9C421FD04379012B3B
S11318D0C7D04379002BD5D101680B7E1342CAD1FE
S11318E0124B0D7E1542C6D1013B002BF9D1C2E744
S11318F002230B7604250EE08B6ADB05DB0DD5E7AE
S11319000236B6B21B0A61464B55DAE7019D02E086
S1131910122500E01025280003B00CBC91469A461D
S1131920F0BD019DF7E7C046FFFF0000102700004F
S113193010B544791523012C01D0180010BD047A88
S11319400023002CF9D1002A58D04B78002B44D026
S113195003681B7EDB0710D40A78D1090023002911
S113196004D15309DB012E498C4663441F211140E5
S113197001228A409A610523DFE70A78D40900230B
S1131980002C04D15309DB01254CA44663441F24D5
S113199014400122A2405A6103681A7ED20701D57D
S11319A08A789A62C2790023002AC6D10268042187
S11319B0137E0B42FCD0117E00234907BDD5538B07
S11319C05B0701D5042353838379012B02D0936AE7
S11319D00023B2E7936A0023AFE70A78D109002312
S11319E0002904D15309DB010D498C4663441F21AE
S11319F0114001228A405A6100239EE70A78D109E6
S1131A000023002904D15309DB0105498C466344B2
S1131A101F21114001228A409A6100238DE7C046AC
S1131A2000440041F0B5DE4657464E464546E0B513
S1131A3083B03823C45C333B052C02D01233002A14
S1131A4007D1180003B03CBC90469946A246AB4669
S1131A50F0BD4379002B03D103681C7EA4070AD48C
S1131A609346002401230225AC460235A846013AD8
S1131A7092B28A4623E002241C76F1E7357E614661
S1131A800D422ED1357E1D4200D1C2E00668357E5E
S1131A901D42FCD0671CBFB251460D5D81790129FE
S1131AA023D0ADB23C00377E1F4202D0ED05ED0DD0
S1131AB0B562551EADB2C679002E1DD12A005A4D0D
S1131AC0AA4270D04579002DE0D10668357E1D42CA
S1131AD0D4D1564D377E1F42D0D1013D002DF9D1CE
S1131AE0CCE7022333760233ABE70234A4B2514687
S1131AF0CF5D3F023D43D6E751464579002D37D1AE
S1131B004B4D019112E00234A4B24946019F795C25
S1131B100902009F0F431BE0013A92B20668377E28
S1131B2041460F421BD1013D002D18D0002AF5D0AB
S1131B300668377E1F42F1D0671CB9B28946019905
S1131B40095D009181790129DDD069460F884C46F1
S1131B50317E1942E0D0FF05FF0DB762DCE7019941
S1131B60357E67463D4218D1357E4646354252D0D1
S1131B700668357E47463D42FBD0357E3D4207D060
S1131B80758B3D4200D077838579012D09D0B56AE4
S1131B905D46013DADB2AB4669E7022333760233BD
S1131BA04FE7B56AF4E74379012B0BD0002B34D10E
S1131BB0C279002A00D144E704245B465D46002B29
S1131BC019D13EE7016802220B7E1342FCD00023A8
S1131BD037E70B7E234222D00B7E234207D04B8B68
S1131BE0234200D04C838379012B10D08B6A013DB2
S1131BF0ADB2002D15D001680B7E2342E9D10B4B09
S1131C000A7E2242E5D1013B002BF9D1E1E78B6A40
S1131C10EDE7122315E7122313E7002311E712233C
S1131C200FE700230DE7C046FFFF00001027000068
S1131C3011270000F8B58000854BC4582668372367
S1131C40E35C3622A75C1F40337EB57D1D40EB0765
S1131C502ED56379012B25D0002B29D1637A002B53
S1131C6026D02168E26A1378DBB2501CE062A079C6
S1131C70012800D169E09BB2DB05DB0D8B62A38EEA
S1131C80013B9BB2A386A38E9BB2002B10D10133E0
S1131C903375637A012B0BD1E379002B08D102331E
S1131CA0B37505E0637A002B3ED0637A002BD8D15C
S1131CB06B0711D5738B5B0751D5637A012B08D061
S1131CC01E223823E254353B6372023333753B07DB
S1131CD041D4B36A04237383AB0715D56379002B0E
S1131CE00ED107333375053B33760133637200231A
S1131CF0A386238638330022E254FB0600D57FE016
S1131D006379012B00D17FE02B0708D56379002B81
S1131D1005D1083333753376BB0600D58AE06DB23E
S1131D20002D00DA8AE0F8BD4A4B1B88B362638E4B
S1131D30013B9BB26386638E9BB2002B01D10133BE
S1131D4033756379012BB0D086E7507800020343E2
S1131D500232E26290E72000A3699847B9E7637A08
S1131D60012B27D023689B6ADB05DB0DDAB2A16A5D
S1131D700A70A26A511CA162A179012933D0238E71
S1131D80013B9BB22386238E9BB2002BA4D100225D
S1131D903833E254343B3375637A022B29D0637AA7
S1131DA0002B00D098E7BB0700D495E720002369F7
S1131DB0984791E723689B6A638E013B9BB26386D5
S1131DC0638E9BB2002B00D086E704333375002268
S1131DD03433E254353B6372FB0700D47CE72000C4
S1131DE0E368984778E71B0A5370A36A0133A36238
S1131DF0C5E77B0700D46FE72000636998476BE76A
S1131E002000E36998477BE7637A012B00D086E7DB
S1131E10E379002B00D082E7023333750133637218
S1131E2000223533E254FB0700D46DE72000E36859
S1131E30984769E72000236A984770E78023337541
S1131E4033767B0600D46EE7636A200098476AE71E
S1131E50F43E0020D03E0020F0B5C64600B50C008C
S1131E60904600280FD1002A11DD8F18094E0A4D23
S1131E70306821002B6898470134BC42F8D14046B1
S1131E8004BC9046F0BD01235B429846F7E78046C8
S1131E90F5E7C046DC3E0020D43E0020F0B5C6463F
S1131EA000B50E0015000138022810D8002A11D000
S1131EB000240C4B98460C4F43461868315D3B6830
S1131EC09847002808DB0134A542F5D106E0012437
S1131ED0644203E0140001E001246442200004BCD5
S1131EE09046F0BDDC3E0020D83E002030B587B0DF
S1131EF0040001AAA0231B01138000239370D37054
S1131F00FA21C900D1800121117104201072537289
S1131F109372D37211735173144BD38106231374C8
S1131F20134D14492800144B98472800134B984725
S1131F300120012C01D907B030BD2000104B984777
S1131F400300032806D120000D4B9847030001200D
S1131F50032BF0D0002B06D120000A4B9847431ED8
S1131F6098418000E7E70120E5E7C046DE0700006E
S1131F70E03E002000140040711400000D13000026
S1131F80ED2100002922000010B5054B9847031EDF
S1131F9004D00320022B00D0023810BD0020FCE73F
S1131FA0ED210000F0B5DE464F464646C0B584B08C
S1131FB001900D0014001F00184B984706000120E3
S1131FC0002E05D104B01CBC90469946A346F0BD32
S1131FD003A90198124B9847B14632007A4312196B
S1131FE0039B0133734304209A42EBD8002F11D092
S1131FF0730298467B1C9B4601270A4E2A00210047
S11320000198B047002807D101374C4445445F4547
S1132010F4D1D7E70020D5E70120D3E7212200003F
S11320200522000041220000F0B5DE464F46464638
S1132030C0B584B001900D0014001F00184B9847E0
S113204006000120002E05D104B01CBC9046994620
S1132050A346F0BD03A90198124B9847B14632003C
S11320607A431219039B0133734304209A42EBD839
S1132070002F11D0730298467B1C9B4601270A4E01
S11320802A0021000198B047002807D101374C44A9
S113209045445F45F4D1D7E70020D5E70120D3E7D5
S11320A021220000052200006122000010B582B048
S11320B0140001290BD0002920D002290FD00420BC
S11320C0032902D101231360002002B010BD01A92D
S11320D00E4B9847019B013323600020F5E70C4B1E
S11320E09847431EDBB2012B04D9031FFB220120B6
S11320F01342EAD1002323700020E6E7054B9847FA
S1132100002801D00320E0E70020DEE705220000DC
S113211021220000ED21000000B583B069460F487C
S11321200F4B98476B46587940051B791B0418439D
S11321306B469B78DB0218436B465B785B01184364
S11321406B461B785B0818436B46DB88054A94464C
S113215063445B06184303B000BDC046E03E002064
S1132160F913000044F8FFFF03007F2811D9002968
S113217011D1C72817D00D4A023201231188814298
S113218004D001339BB20232802BF7D18033FF207D
S11321900340180070470023FF28FAD88038400015
S11321A0024BC35AF5E70023F0E7C046B8850000A8
S11321B0612814D00B4B043301216222904207D0D2
S11321C0013102339A1E1288002AF7D1030004E079
S11321D0031E02D04900044BCB5A1800704700215B
S11321E0F8E7C046B88600009888000010B50123BF
S11321F0002801D0180010BD014B98470300F9E7EF
S1132200810A000010B50123002801D0180010BD78
S11322100800024B98470300F8E7C046B10A0000E3
S113222043425841C0B2704710B50123002801D081
S1132230180010BD014B98470300F9E7C10A0000DC
S113224010B50C000123002801D0180010BD1100A6
S11322502000024B98470300F7E7C046150B000027
S113226010B50C000123002801D0180010BD110086
S11322702000024B98470300F7E7C0466D0B0000AF
S113228010B5002A05D00023CC5CC454013393421A
S1132290FAD110BD020002398369023B0020994241
S11322A003D290784143906A0818704702000100F5
S11322B00B3100204308C001034310781818C0B242
S11322C001328A42F6D1704710B5002810D0027846
S11322D00923002A01D1180010BDC2888A42FAD10C
S11322E04078044B98470323C007C0170340F2E724
S11322F00923F0E7891F000070B504000A000100FB
S11323003031407801231F4DA8470323002801D012
S1132310180070BD1C4BE35C1B021C4AA25C1A43F0
S11323201B4912B202238A42F2D16733E35C1B06D3
S11323306822A25C120413436622A25C1343672240
S1132340A25C120213431B021B0A124A934216D0C8
S11323508523E35C1B068422A25C120413438222BD
S1132360A25C13438322A25C120213431B021B0AC6
S1132370094A94466344581E8341DBB2C8E70023EC
S1132380C6E7C046A51F00002F0200002E02000071
S113239055AAFFFF46415400BABEABFFF0B5D6467E
S11323A04F464646C0B5140002681378303B092BEB
S11323B002D855783A2D16D0CA4B1D680D60002DF1
S11323C000D1F1E02B78002B17D06878C64B9847E2
S11323D00300C20711D40020002C09D05B0700D4ED
S11323E0E4E00A3004E0023202600B20002BE3D068
S11323F01CBC90469946A246F0BD00232B706B701E
S11324000020BA4B984703000320DA07F0D4002CCD
S113241002D007305B07EBD400212800B44B984767
S113242003000024012800D199E0032B00D1BFE070
S11324300D20002BDCD13C33EA5C1202013BEB5C47
S11324401343802292001BB29342D1D14723EB5C09
S11324501B02BB3AFF3AAE5C1E430DD15723EE5C20
S11324603606013BEB5C1B041E435423EB5C1E430A
S11324705523EB5C1B021E43EE614023EA5CEA70C9
S1132480531E0D20012BB3D83D23E95CA97000290C
S1132490AED04B1E1942ABD14223EB5C1B0234304D
S11324A0285C1843804628810D2043461B079FD192
S11324B04423EB5C1B023630285C03430DD15333B9
S11324C0EB5C1B065220285C000403435020285C6C
S11324D003435120285C000203433F20285C000290
S11324E03E27EF5D0743BA460D20002F00D17FE75A
S11324F0724391464246170957444F44BB4200D2A7
S113250076E7D81B7B4B984703000D20002B00D1A6
S11325106EE7794A9A4292415242013277498B429C
S113252048D80233AB61E719AF6254442C620D20E2
S11325304146002900D15BE74C446C62022A2CD14D
S11325405B006F498C4663445B0A0D209E4200D2B7
S11325504EE701235B422B610023EB60B6E0F233CC
S1132560FF33EB5C0D20002B00D141E7FA23FF334E
S1132570EC5C2406013BEB5C1B041C43FB235B006B
S1132580EB5C1C43F823FF33EA5C12021443210082
S11325902800574B9847030047E70321594349084C
S11325A001200340CB18CCE70C2021E700201FE7D3
S11325B001201DE70233AB61E719AF625246A2184E
S11325C02A620D204246002A00D011E75F22AA5C4D
S11325D012065E21695C09040A435C21695C0A43B2
S11325E05D21695C09020A436A629B00444A94467D
S11325F063445B0A0D209E4200D2F9E601235B424C
S11326002B610023EB606B716133EB5C1B02602276
S1132610AA5C1A4312196A612900303168780123CF
S1132620384CA0470322002850D1374BEA5C1202F1
S1132630364BEB5C134336491BB203228B4245D124
S11326403323EB5C1B062F32AA5C120413433022A3
S1132650AA5C13433122AA5C120213432D490322BC
S11326608B4233D12C4BEB5C1B062C4AAA5C120424
S1132670134385229200AA5C1343294AAA5C1202DE
S11326801343284903228B4220D1274BEB5C1B06C2
S1132690264AAA5C1204134387229200AA5C1343BD
S11326A0234AAA5C12021343EB60224BEB5C1B0629
S11326B0214AAA5C1204134386229200AA5C1343A3
S11326C01E4AAA5C120213432B6103222A701C4A7D
S11326D0138801339BB21380EB800020E8622871D9
S11326E086E6C0461C010020891F0000ED1E000084
S11326F0F9220000316E0000F50F0000F5FF000024
S1132700FF010000A51F00002F0200002E020000A0
S113271055AAFFFF52526141170200001602000041
S113272015020000727241611F0200001E020000C7
S11327301D0200001B0200001A0200001902000022
S113274020010020F0B5CE4600B582B004000F0091
S1132750C56A8D423FD00379002B07D10023002F97
S11327602CD1180002B004BC9146F0BD30239C4625
S11327708444634661460193407801232A00174E3E
S1132780B04701230028ECD100232371236AE269B6
S1132790944663449D42E1D2E678012EDED90F4B84
S11327A09946E3699C466544607801232A000199AF
S11327B0C847013EF6B2012EF3D1CFE721003031F4
S11327C0607801333A00064DA84701230028C8D198
S11327D0E7620023C5E70023C3E7C04629200000C1
S11327E0A51F0000F8B505000C00012974D90120CB
S11327F0AB69994271D22B78022B34D0032B49D088
S1132800012B02D00120404267E04E087618710A7D
S11328102B6A9C4661442800304B9847002802D01C
S11328200120404259E0F305DB0DEB1830331F78EB
S11328300136710A2B6A9C4661442800274B98474D
S1132840002802D00120404247E0F605F60DAD19FC
S11328503035287800023843E30701D500093CE00D
S11328600005000D39E0090A2B6A9C4661442800E2
S11328701A4B9847002802D0012040422DE0640002
S1132880FF235B001C402D1930356B781B02287820
S1132890184322E0C9092B6A9C46614428000F4B67
S11328A09847002802D00120404216E0A400FE23ED
S11328B05B001C4023003033EB18D87800069A786C
S11328C0120410432C193034227810435B781B0215
S11328D018430001000900E00120F8BD452700006D
S11328E0F8B504000D00E18081680220012903D0BD
S11328F023689A69914200D3F8BD002919D11A7846
S1132900032A13D00022E2601A890220AA42F3D9D2
S11329102A0992B25B6A9B182361236830330F2221
S113292015406D015D1965610020E5E7596A0029CC
S1132930E8D09E783601B54213D3AD1BADB2104F2B
S113294000E01D002068B8470100431C12D0012894
S113295012D923689B69984210D2AB1B9BB2B54233
S1132960EFD2E1602068074B98472B099BB21818F7
S11329702061D2E70120BFE70220BDE70220BBE7C8
S1132980E527000095220000F0B5C64600B5070013
S11329900C0016000225012902D98369994203D348
S11329A0280004BC9046F0BD0378022B53D0032BBF
S11329B063D00225012B02D001233B71F0E74B08C1
S11329C0984688444346590A036A9C4661443B4BF3
S11329D09847051EF0D14346DB05DB0DE2071FD502
S11329E0FB18303319780F220A403101FF2000010F
S11329F001400A431A704446013401233B71610AC1
S1132A003B6A9C46614438002C4B9847002851D1BE
S1132A10E405E40D3609F6B23C1930342670CBE7F0
S1132A20FB1830331E704446013401233B71610AA4
S1132A303B6A9C4661443800204B984700283BD1B0
S1132A40E405E40D3B1930331B780F22934336051C
S1132A50360F1E43E0E7090A036A9C466144174B9C
S1132A609847051EA8D16300FF2464002340FB1887
S1132A7030331E70360A5E709EE7C909036A9C46AD
S1132A8061440E4B9847051E96D1A400FE235B00BB
S1132A901C4022003032BA18D3783C1930341B0958
S1132AA01B071E432670330A5370330C9370360E83
S1132AB0D67081E705007FE705007DE74527000024
S1132AC0F0B5C64600B505008846002907D1C6689A
S1132AD0002E0DD083699E420BD3012609E0264BBC
S1132AE0984701283DD9AB694646984201D23DE05A
S1132AF001263400204F0AE021002800B8470028AE
S1132B000DD0431C32D0012830D0B4422DD0013432
S1132B10AB699C42F0D3012E25D90224ECE7174A75
S1132B2021002800164B9847002813D14346002B58
S1132B3009D1EC602B695A1C1BD0013B2B6101238A
S1132B406B71200012E02200414628000C4B98478C
S1132B500028EED00138424242415042012318433A
S1132B6004E0012002E0002000E0002004BC9046C4
S1132B70F0BD2000FAE7C046E5270000FFFFFF0F85
S1132B8089290000F8B5CE46474680B504000D00FB
S1132B900220012902D9A369994203D30CBC9046AF
S1132BA09946F8BD134F144B98460123994603E008
S1132BB03500A369B342F1D929002000B847061EA5
S1132BC011D0012811D0431C11D00022290020006B
S1132BD0C0470028E2D123695A1CE9D0013323619C
S1132BE04B466371E4E70020D8E70220D6E70120D2
S1132BF0D4E7C046E52700008929000070B5040029
S1132C0000212E4B984700280AD12378032B08D0A3
S1132C106078002200212A4B9847431E9841C0B295
S1132C2070BD6379002BF3D00023E36221003031BF
S1132C300B008C229200A01800221A7001338342E8
S1132C40FBD155221F4BE25455321F4BE254DE3B5D
S1132C50FF3B7A3AA3540132A3540F330132A354F5
S1132C600F32332022543F308525AD006055174D77
S1132C70605517482254174AA35423690132A354B8
S1132C80180A154AA054180C144AA0541B0E144ACE
S1132C90A354E3680132A354180A124AA054180C2E
S1132CA0114AA0541B0E114AA3546078012362698F
S1132CB00F4DA84700236371AAE7C04645270000CB
S1132CC0AD2000002E0200002F02000015020000BB
S1132CD01602000017020000190200001A02000088
S1132CE01B0200001D0200001E0200001F02000063
S1132CF029200000F8B5D646474680B506000D00E9
S1132D00C4880134A4B20420002C03D10CBC904626
S1132D109A46F8BD3369002BF8D00F2727400FD10E
S1132D2001333361F168002904D133681B89A3425C
S1132D30ECD905E030688378013B22091A4207D0B8
S1132D40F480336830337F01DF1977610020DDE7D9
S1132D502E4B9847804602204346012BD6D9013397
S1132D6050D033689A69904544D30230002DCDD0B9
S1132D70F1681800264B9847804607204346002BED
S1132D80C4D00538012BC1D001380133BED0002195
S1132D903068204B984703000120002BB6D13368DC
S1132DA01A0030328C2189008C4663440021117052
S1132DB001329A42FBD1356841462800164B9847A8
S1132DC0E862002501239A4633689A78AA420ED90C
S1132DD052461A71002130680E4B9847002813D1CF
S1132DE03268D36A0133D3620135EDB2ECE7DA6AB3
S1132DF0521BDA624346F36041463068064B9847FB
S1132E0030619DE7012081E701207FE7E52700008D
S1132E10C12A00004527000095220000F0B5DE46D7
S1132E2057464E464546E0B583B0050000215A4B4F
S1132E309847071E00D09EE0FF2399469A46574BB9
S1132E409B461BE00F2B30D05346002B05D12000AE
S1132E50534B9847814500D18DE001235B422B847D
S1132E60A869C37ADB0700D47DE0FF239A460021DA
S1132E7028004C4B9847071E00D07CE0296928683D
S1132E80D847071E77D16C692678002E00D180E0E0
S1132E90E27A3F231340E52E00D177E01207D1D523
S1132EA00F2B02D0FF239A46E1E7EF69002FDED013
S1132EB0730618D5637B994640239E43EB882B8485
S1132EC0637B0093FF2292464B45D0D12378BF3ACF
S1132ED09343013B5A00D218920092469A4401222D
S1132EE0002399461DE0B245EAD0FF239A46BEE787
S1132EF02D4B984701905346FE2B1FD80123534472
S1132F00984653465B00D85B274B98470200019BC9
S1132F10834213D1C24601239C46E1444B460D2B08
S1132F2011D0224B4946C95C63185B781B02605C74
S1132F301843002ADCD11E4B9842ECD0009B9946E2
S1132F40FF239A4693E723785B0606D5002A04D02C
S1132F5053465B00DB5B002BF0D1013EF3B29A4693
S1132F60009B994683E70023E15CC25C91420AD14D
S1132F7001330B2BF8D1380003B03CBC9046994682
S1132F80A246AB46F0BDFF239A4670E7FF239A465C
S1132F906DE70427EFE7C046E1280000452700005D
S1132FA0AD220000F52C0000B1210000788A000059
S1132FB0FFFF0000F0B5DE4657464E464546E0B5F5
S1132FC083B000900D000B782F2B0FD05C2B0DD00D
S1132FD00023009A93602B781F2B0AD80021140039
S1132FE01000B24B9847002363613CE10135EFE7E1
S1132FF0013528782F28FBD05C28F9D0009BDB69A9
S1133000984680B21F2800D83CE12F2800D13CE12B
S11330105C2800D13CE11E006F1C012480235B006E
S11330209946AA4611E0002B33D13080631C3878CE
S11330301F281ED92F2800D12DE15C2800D143E19F
S1133040023601374B4524D01C000121984B984788
S1133050011E1ED07F28E8D8222800D102E12A23AD
S1133060944A9DB28D42DED001321378002BF8D100
S1133070DBE75546ED18042610E1013C023B002C29
S113308000D1EFE01A88202AF7D02E2AF5D0002CA0
S113309001D10620E7E06000002342461352009B62
S11330A09B6919000B3120221A7001338B42FBD12A
S11330B04246002301E00133023211882029FAD06C
S11330C02E29F8D0002B01D00322164342461218B1
S11330D0023A12882E2A08D0021F4244013C002CD6
S11330E003D0023A51882E29F8D1082293460022AF
S11330F09246914606E0A74200D1E7E003231E432F
S1133100F6B23B005F1C5B004246985A00282BD065
S11331102028F3D02E28EED0DA4519D2A74200D1C8
S1133120D4E07F2864D82B2874D02C23624A99B227
S113313081426DD001321378002BF8D10300413B5A
S11331409BB2192B74D802234A461A43914665E070
S11331505B460B2B40D0A74200D1BBE003231E43A8
S1133160F6B2A74200D8B5E0009B9B691A78E52A1D
S11331703BD05B46082B67D00C234A4613400C2BEC
S113318067D0D243920764D0B20706D403224946DB
S11331900A40012A60D0042B61D0009CA2690192EC
S11331A0D6722000454A9047A3690193DB7A002830
S11331B060D15B0757D400984269D37ADB065FD5A8
S11331C0517D0902137D0B431B04D17E0902927EBB
S11331D00A43134383600CE703231E43009B9B694C
S11331E01A78E52AC8D10B22934605221A70C0E743
S11331F000212F4B9847002800D175E0304B9C46A6
S113320060448038007802231E43002802D08AE7F5
S1133210002B93D003231E43F6B25F20009B9B69CF
S11332200193524698543B0001229446E24469E7D4
S11332300300613B9BB2192BF0D801234A461A4381
S11332409146203880B2E9E74B469B00DBB29946B1
S113325092E70222164397E70F3216439BE70433A3
S11332601E439AE7062003B03CBC90469946A2460A
S1133270AB46F0BD0428F6D15B07F4D40130F2E785
S11332800520F0E701230024F4E60123002403E0F1
S11332900123002400E05546ED180026002CE1D05F
S11332A0084BE3185B004344ECE6C046E128000009
S11332B069210000098B0000158B00001D2E000001
S11332C0888A0000FFFFFF7F5546E5E75B460B2B2E
S11332D000D181E74B469B00DBB2994623000B22C9
S11332E09346033A92460DE702231E4392E7C046F3
S11332F0F0B5DE4657464E464546E0B589B0040073
S11333008769C3699A4605AD0C2239002800A84B89
S11333109847EB7ADB0700D470E00023FB72E3618B
S11333200B2205A93800A24B9847012303AD1E00C8
S1133330A04649E0013829184A701B099BB2002BAA
S113334007D0210019400A003032392AF2D9073255
S1133350F0E77E332B5400280AD03B78202B09D089
S113336000230133984207D0FA5C202AF9D109E0FE
S1133370030007E0002305E0030003E0FA540133EF
S1133380072B05D820220728F8D82A5C0130F5E756
S11333904046884B984700281CD10136B6B2642EAB
S11333A015D00B2205A93800814B98473300052E10
S11333B00AD951465A08DB0313430A889B189BB267
S11333C002310A88002AF5D107200F24B9E7072320
S11333D0984606E044468046642E00D1A5E00428C1
S11333E007D0404609B03CBC90469946A246AB463D
S11333F0F0BD05ABDB7AFB725346E36105ABDB7AC8
S1133400012293469B0711D553461B88002B1BD0E2
S113341000205246013080B243009B5A002BF9D160
S113342019300D21644B984783B29B46002120003C
S1133430624B984780460028D3D182460025604FCE
S11334400026604B99460BE00020E9E76B1C9BB219
S11334509B456DD01D0001212000C847002812D1D2
S113346021692068B847002800D09BE063691B7875
S1133470E52B01D0002B04D1002DE7D1E3889A4637
S1133480E4E73500E7E78046ABE7514620004B4BC5
S1133490984780460028A4D1A0694B4B98470190D7
S11334A0A8461FE022006AE05E46644647498B4214
S11334B003D05200935B002B03D140234A461A43A6
S11334C091464B46037001232268137100212000AA
S11334D03C4B9847002869D14546013DABB298461C
S11334E0002B27D021692068354B984700285BD1F1
S11334F0E669606943466A46D370D378994613797E
S113350043730F23C372002303738376C3764B463E
S1133510013B5A00D2189200D2182D490D000D35E6
S113352000232A4FB346A4462CE00723984658E7C5
S1133530012BAAD821692068214B9847804600288E
S113354000D04EE765692B002900203100221A7053
S113355001339942FBD10B22A1692800144B9847EF
S1133560A369DA7A182313402B73236801221A7192
S113357037E70C78FF2606550419FF2666700131DB
S11335808D4291D0BB42F4D0541C52005B46D35AB6
S11335900A78835482181E0A5670002B82D12200A6
S11335A03B00ECE780461CE780461AE7804618E7B4
S11335B0812200001D2E0000456F0000E12800005C
S11335C045270000F52C0000AD220000FFFF00009D
S11335D0788A00000B23002801D018007047074B9D
S11335E01B68002B01D000221A70002901D000238F
S11335F00B70024B19600023EFE7C0461C0100204A
S1133600F0B5C64600B5594CA54405000191170014
S1133610002303601F2616401E223A4085A901A8F4
S1133620534B984782AB8B9302AB8C93002806D004
S11336308A9C1C233B4245D100283DD10CE00199D2
S113364085A84C4B98478A9C0028F2D1002C00D1C5
S113365086E01C233B4246D1E37A0420DA062BD4CD
S1133660BA0702D50330DB0726D43B0701D5202354
S11336701E43859BDB6AEB612C62AE71627D120294
S1133680237D13431B04E17E0902A27E0A431343F4
S11336902B61E37F1B06A27F12041343227F134393
S11336A0627F12021343EB600023AB60AB61859B26
S11336B02B60DB88AB8000208E239B009D4404BCE0
S11336C09046F0BD042805D008231E438A9C002898
S11336D0D3D0F1E785A8284B984708231E438A9C3A
S11336E0002808D0E8E7E37A112207201A42E3D140
S11336F001307B07E0D43307BBD5204B9847A07338
S1133700030AE373030C2374000E60740023E37252
S113371023776377A377E377627D1202277D1743CC
S11337203F04E17E0902A27E0A431743A376E376AF
S113373023756375859801330371002F97D0C36A8D
S1133740984639000E4B98470028B5D18598013F1B
S1133750C76041460B4B9847002800D187E7ABE789
S11337601C2306203B42B2D00620ADE7C8FDFFFF74
S11337709D230000B52F0000F13200001921000044
S1133780852B000045270000F0B5DE4657464E461F
S11337904546E0B583B004000D00170099460023A8
S11337A04A461360818800686D4B98470090002852
S11337B000D0CDE0A3795AB2002A00DAC6E0DB07D4
S11337C002D407230093C3E0E368A2689E1ABE42B2
S11337D000D93E00002E00D1BAE02F0065E06169F7
S11337E0604B98476FE0A27980235B421343A37137
S11337F002230093ACE0A27980235B421343A371BC
S113380001230093A4E0A27980235B421343A371B4
S1133810022300939CE0A27980235B421343A371AB
S11338200123009394E021002431400238188022BF
S113383092004D4B984776E0A269904519D0A37940
S11338405B060CD521002431534658780123474D9B
S1133850A84700286AD1A37940229343A371210089
S113386024312368587801234246414DA847002853
S113387064D14346A361A368D905C90D8025AD0071
S11338806D1AB54200D93500243161182A00380078
S1133890354B98477F19A3685B19A3604B461B6897
S11338A05B194A461360761B52D0A368DA05E2D14D
S11338B020688278013A5D0A1540EDB2002D07D1E7
S11338C0002B8CD1206901288DD9431C93D06061D1
S11338D023689A4661691800264B9847002892D0BD
S11338E08046A844730A9B46A6D053469B785A4602
S11338F0AA189A4201D95B1B9B465B466A46D37160
S1133900D3795246507842463900194DA8470028C9
S113391000D080E7A3795B0605D5A3694246981ACF
S1133920834500D97FE75B465D02B3E7A279802334
S11339305B421343A3710123009309E0A27980231E
S11339405B421343A3710123009301E0022300931C
S1133950009803B03CBC90469946A246AB46F0BDE5
S1133960C9220000E5270000812200002920000070
S1133970A51F000095220000F0B5DE4657464E46CE
S11339804546E0B583B004000D00160099460023B7
S11339904A461360818800687D4B98470090002850
S11339A000D0ECE0A3795AB2002A00DAE5E09B07E4
S11339B002D407230093E2E0E3689A19934210D8F3
S11339C0002E0ED02F007FE00021724B9847030099
S11339D0206103E061696F4B98470300002B00D01E
S11339E085E0A368E268934200D9E360A3792022CA
S11339F01343A371C3E0A279813B1343A371022350
S1133A000093BCE0A2797F3B1343A371012300938D
S1133A10B5E021002431236858780123A2695E4D62
S1133A20A847002804D1A37940229343A37167E0F7
S1133A30A27980235B421343A371012300939EE088
S1133A40A27980235B421343A3710223009396E07F
S1133A50A27980235B421343A371012300938EE078
S1133A604002391820002430802292004B4B9847A2
S1133A70A37940229343A3716AE0A369984503D0D4
S1133A80A368E268934266D34346A361A368D8055A
S1133A90C00D8025AD002D1AB54200D93500243063
S1133AA020182A0039003D4B9847A379402213433C
S1133AB0A3717F19A3685B19A3604B461B685B194C
S1133AC04A461360761B8CD0A368DA05DED12068E1
S1133AD08278013A5D0A1540EAB29346002A0CD175
S1133AE0002B00D076E72369002B00D16CE7012B73
S1133AF000D180E75A1C85D06361A3795B0688D422
S1133B0023689A4661691800254B9847002897D086
S1133B10804658468446D844730A9B46ADD05346E3
S1133B209B785A4662449A4201D91B1A9B465B46CB
S1133B306A46D371D3795246507842463900164DBD
S1133B40A847002884D1A3694246981A834587D898
S1133B505B465D02ADE721002431534658780123CA
S1133B604246104DA84700288ED0A27980235B429C
S1133B701343A3710123009301E0022300930098EF
S1133B8003B03CBC90469946A246AB46F0BDC04645
S1133B90C9220000C12A000029200000812200005F
S1133BA095220000A51F000070B5040081880068FC
S1133BB0254B984700281AD1A3799A0617D55B0696
S1133BC00FD521002431236858780123A2691F4DA1
S1133BD0A84703000120002B09D1A3794022934375
S1133BE0A371E16920681A4B9847002800D070BD82
S1133BF0256AEB7A20221343EB72237B2B77A3896C
S1133C001B0A6B77E389AB77E37BEB77237CAB769B
S1133C10238A1B0AEB76638A2B75638A1B0A6B75EE
S1133C200C4B9847A875030AEB75030C2B76000E12
S1133C306876A37920229343A37101232268137128
S1133C402068054B9847D2E7C922000029200000CC
S1133C504527000019210000FD2B000010B50400C9
S1133C60034B9847002801D10023236010BDC046B0
S1133C70A93B0000F8B5DE4657464E464546E0B53A
S1133C8004000F00818800686D4B9847061E00D021
S1133C90CEE0A3795AB2002A00DAC8E0E268BA4258
S1133CA002D29B0700D41700A5680023A360002F4D
S1133CB000D1BDE0236899469B785B029846002DAD
S1133CC012D0013D781E5F4B9A4641469847834681
S1133CD041462800D047834506D3434658422840EE
S1133CE0A0603F1A656903E02569002D0BD065616A
S1133CF0002D63D047453DD902239946524B9B463C
S1133D00524B9A462CE0002148464F4B98470500F9
S1133D10012803D0431C08D02061E8E7A27980235E
S1133D205B421343A371022682E0A27980235B42A3
S1133D301343A37101267BE029002068D0470500C6
S1133D406B1C29D0012D2ED923689B699D422AD250
S1133D506561A3684344A3604346FF1AB84509D28A
S1133D60A3794A461A42E7D029002068D847051E9D
S1133D70E6D14746A368DB19A360FB051DD02900E3
S1133D802068334B9847002814D1A27980235B42E2
S1133D901343A37102264BE0A27980235B421343B1
S1133DA0A371012644E0A27980235B421343A371EB
S1133DB002263DE07F0A3D1800E00025A368DB05EC
S1133DC01DD0A26995421AD0A3795B060CD52100B7
S1133DD024312368587801231E4FB847002818D18E
S1133DE0A37940229343A371210024312368587896
S1133DF001232A00184FB847002811D1A561A368F0
S1133E00E268934214D9E360A37920221343A37197
S1133E100EE0A27980235B421343A371012607E0DD
S1133E20A27980235B421343A371012600E002269A
S1133E3030003CBC90469946A246AB46F8BDC0460D
S1133E40C9220000316E0000C12A0000E5270000ED
S1133E509522000029200000A51F0000F0B5C646E9
S1133E6000B584B007000192050000244B1E98465B
S1133E700E4E44450EDA02AB012203A90198B04765
S1133E80029B012B06D103AB1B7801353B55013452
S1133E900A2BEED100232B70631E9C416442274001
S1133EA0380004B004BC9046F0BDC0468937000019
S1133EB010B582B00C006B46187001AB0122694644
S1133EC02000054CA047019B581E431E98414042C8
S1133ED00123184302B010BD79390000F8B506007B
S1133EE00D00007800280BD00024064F2900B847A5
S1133EF0431C04D00134305D0028F7D12000F8BD04
S1133F000020FCE7B13E00000C4B1B68002B06D1DF
S1133F10EFF31083002B07D00022094B1A70074AD5
S1133F20136801331360704772B6BFF35F8F0022CA
S1133F30044B1A700132024B1A70F0E7240100207E
S1133F402801002030000020084B1A68013A1A604A
S1133F501B68002B09D1064B1B78002B05D00122CE
S1133F60044B1A70BFF35F8F62B6704724010020C0
S1133F702801002030000020F0B583B001AC0125F9
S1133F8065700027A770257021003E20064EB047BB
S1133F908022D205054B9A612770657021000F209D
S1133FA0B04703B0F0BDC046B13F000080440041BB
S1133FB000B583B001AB80221A700A785A704A782F
S1133FC09A708A78DA701900014B984703B000BDE3
S1133FD0ED4E0000F0B5DE4657464E464546E0B588
S1133FE087B08046049116001F00002200230021A0
S1133FF08B463F2401202100009601975C460394E0
S11340004446059413E02024641A0500E540A846BC
S113401014E0009C019D121BAB415C464D462C43B1
S1134020A346039C45462C430394013925D32024FD
S113403064420C19E7D40500A540A84604008C404E
S1134040A14692185B4114001D00059E4F463E4058
S1134050B446049E47463E40B246664657463E43F3
S113406003D00600264332002B00009C019D9D4294
S1134070DBD8CED19442D8D8CBE7039B584619005D
S113408007B03CBC90469946A246AB46F0BD10B57D
S1134090490840230024814202D2180010BD1C00AC
S11340A0091A631C9BB28842F9D94023FF2CF4D827
S11340B014800023F1E70000F0B583B00F00160070
S11340C008AA117804004C434022BC4202D91000D3
S11340D003B0F0BD002B14D1020008000021194CDC
S11340E0A04701003A0000230020174CA0470022FB
S11340F00123121A8B41120C1B041A433280002232
S1134100E5E70022012BF9D10A00002300210D4C20
S1134110A04702000B0000920193380000210A4CD2
S1134120A047050080239B0140229842CFD8790FF5
S1134130F800009A019BA047EA00821AD2B2520307
S11341402A43DBE71D710000D53F000010B582B0A3
S113415004000E4B1B78002B07D0002905D10B4B14
S11341605B78834210D01D200CE001A90C70132051
S1134170074B98471320074B9847044B5C70012268
S11341801A70002002B010BD0020FBE72C010020B3
S1134190F54D0000694D0000404B984231D00AD9DA
S11341A03F4B98424DD03F4B98425AD03E4B984299
S11341B037D0002070473D4B98420CD03C4B98427E
S11341C0F7D1012917D000295DD0022915D0032980
S11341D015D00020EEE7012907D0002951D002298B
S11341E005D0032905D00020E4E73248E2E732484D
S11341F0E0E73248DEE73248DCE73248DAE73248C3
S1134200D8E7012907D000293FD0022905D0032986
S113421005D00020CEE72D48CCE72D48CAE72D482D
S1134220C8E7012907D0002931D0022905D0032984
S113423005D00020BEE72848BCE72848BAE728484C
S1134240B8E7012907D0002923D0022905D0032982
S113425005D00020AEE72348ACE72348AAE723486B
S1134260A8E7012907D0002915D0022905D0032980
S113427005D000209EE71E489CE71E489AE71E488A
S113428098E71E4896E7032094E71D4892E71D48E7
S113429090E71D488EE71D488CE7C0460010004299
S11342A000180042001C00420014004200080042B2
S11342B0000C004203000500030006000300070091
S11342C00300010003001E0003001F000300090097
S11342D003000A0003000B00030011000300120096
S11342E00300130003000D0003000E0003000F0081
S11342F00300170003001800030019000300040062
S1134300030008000300100003000C000300160063
S113431030B587B00B4B6A4632CB32C232CB32C295
S1134320009B83420BD001239A0069465258824273
S113433006D00133062BF7D1002007B030BD00238F
S1134340D8B2FAE71C8B000070470000F0B50A4BA6
S11343501B78002B0CD1094F094E0A4D0024DE5165
S11343605A1914600433182BF9D10122024B1A7024
S11343708000024BC150F0BD2E010020300100200E
S113438049430000F43E002000B583B009236A4687
S1134390137001335370013393700133D3700133BD
S11343A0137101335371034B98476B46185603B08E
S11343B000BDC0461143000010B5024B1B6800202D
S11343C0984710BD3001002010B5024B5B680120F6
S11343D0984710BD3001002010B5024B9B680220A5
S11343E0984710BD3001002010B5024BDB68032054
S11343F0984710BD3001002010B5024B1B69042002
S1134400984710BD3001002010B5024B5B690520B0
S1134410984710BD30010020F0B5DE4657464E46A1
S11344204546E0B591B005000C001600296008006F
S1134430BC4B9847020023680520DB0706D511B062
S11344403CBC90469946A246AB46F0BD2368173063
S11344509B07F4D4B449086A971C0123BB40034367
S11344600B620FA92D27F35D0B701432D3B20293A4
S11344701800AE4B98470298AD4B9847F05D002169
S1134480AC4B9847F37A6B712423F35CAB7125230F
S1134490F35CEB71F37E2B72337F6B722B6898465F
S11344A01800A04B9847143000220E2306A98C460E
S11344B063441A80328A02928023DB019A4200D13B
S11344C09EE00FD9C023DB01029A9A4200D192E008
S11344D080231B029A4200D01FE10323069300238A
S11344E0079308E080239B019A4200D015E1102332
S11344F006930F3B079333680593F368039373693B
S11345000493337E9B462623F35C9A46736899464C
S1134510002B00D1A0E080235B05994500D184E005
S1134520737E002B02D0B37E424693732A68029FA7
S1134530D369002BFCD10E3306AA944663441B882E
S113454042469381059B039A1343049A13434A46B4
S113455013431F435B461B021F4353465B071F4322
S11345602723F35C002B01D104331F43737E9B028A
S1134570327F52021343727F120213432422B25C2D
S1134580520413432522B25C12041343B17AF27A23
S1134590114319433389FF2B00D181E08022520457
S11345A0174319432C23F35C002B03D1624B9B78F4
S11345B09B0701D580231F432A68D369002BFCD1B4
S11345C0434659602A68D369002BFCD143461F60D7
S11345D00EAB80221A7000225A70DA709A70336B14
S11345E00A93736B0B93B36B0C93F36B02930D935E
S11345F000270AAE63E008230693073B07937AE794
S113460033680593F368039373690493337E9B467D
S11346102623F35C9A4673689946002B18D08023AE
S11346205B05994501D0002025E02723F35C002B8E
S113463000D075E7336A1F00C0B2404B98470100B1
S11346400E2206AB9C46624438003D4B984712E06C
S113465008230693002307932723F35C002B0ED033
S1134660069B0093079B0E2206A98C466244B16AFE
S1134670306A344FB847002800D0E0E650E7336A88
S11346801F00C0B22D4B98470100069B0093079B67
S11346900E2206A88446624438002A4FB847EAE747
S11346A0F37E002B00D17DE78023DB041F4379E7F1
S11346B02000254B984707E00137042F0DD0F9B2AD
S11346C0BB0098590028F3D0431CF5D00EA90870FC
S11346D0000CC0B21D4B9847EEE70023EB602B6142
S11346E06B61AB61EB612B62AB626B620022EB85A9
S11346F0AB853033EA540133EA540133EA540133CD
S1134700EA542868074B984704001149114B98470D
S1134710A400114BE550002091E6102306930023DA
S11347200793E8E61143000000040040F54D000043
S1134730694D00004D41000000200041114E000071
S11347408F400000B940000099410000ED4E000088
S1134750F94700004D430000F43E0020C2791C23B9
S1134760002A01D118007047C28D92B2173B002A6B
S1134770F8D10368DA69002AFCD1198502211A7E6E
S11347800A42FCD00023EDE782791C23002A01D1E0
S113479018007047828D92B2173B002AF8D1026844
S11347A0107E4007F4D5D369002BFCD1538BDBB2C8
S11347B098061DD0980703D5022353831833E7E7DF
S11347C0580703D5042353831A33E1E7D80703D5E5
S11347D0012353831233DBE7D80603D51023538315
S11347E03233D5E79B0603D5202353832133CFE708
S11347F0138D0B800023CBE7F8B58000624BC558BE
S11348002C68E369002BFCD1237EA67D1E40302357
S1134810EB5C3122AF5C1F40F30722D5EB8D9BB2DA
S1134820002B1CD0AA6A1378DBB2511CA9626979E7
S113483001290ED09BB2DB05DB0D2385EB8D013BFB
S11348409BB2EB85002B0CD1013323750133A37587
S113485007E0517809020B430232AA62EBE7012315
S11348602375B30706D50223237500223133EA5496
S1134870FB071AD4730765D5AB8D9BB2002B5FD0B1
S1134880638BDBB21A0714D43F221340002B34D0BD
S11348909A0711D51A223223EA54303B63837B07EB
S11348A050D528006B6998474CE02800EB6898477E
S11348B0E0E737221340E9E75A0705D51E223223E1
S11348C0EA542E3B6383EAE7DA0705D51322322341
S11348D0EA54313B6383E2E7DA0605D54222322308
S11348E0EA54223B6383DAE720221A42D7D02132EA
S11348F03223EA54123B6383D1E7238DDB05DB0DBE
S1134900DAB2696A0A706A6A511C696269790129B2
S113491010D0AB8D013B9BB2AB85002B12D104337D
S1134920237500222E33EA54BB070BD528002B69CC
S1134930984707E01B0A53706B6A01336B62E8E720
S113494004232375F30604D5102323752376FB066D
S11349500ED4B30604D52023237523763B070BD44A
S1134960330704D5082323752376BB0608D4F8BD82
S11349702800EB699847ECE72800AB699847EFE714
S11349802B6A28009847F2E7F43E002010B5082867
S113499003D880001C4B1B589F46002032E01B4B61
S11349A018692FE01A4B1B6A9B059B0F1948D840C6
S11349B028E0164B586925E0144B1B6800209B0720
S11349C020D513491022CB681A42FCD00F4B1A6829
S11349D024231340042B01D00F4813E000200F4B75
S11349E098470A4B9B681B041B0C58430AE050234E
S11349F0074AD35C00205B0704D5044BD86801E068
S1134A008020000210BDC046348B00004801002005
S1134A100008004000127A00006CDC02114E000015
S1134A2070B50C490B6A04788578407801221040EF
S1134A3080014026B34303432A40D20180208343AC
S1134A4013430322224012020348034013430B6220
S1134A5070BDC04600080040FFFCFFFF082803D8D3
S1134A608000254B1B589F46172044E0234A136AB5
S1134A7002210B43136200203DE0204A9369022186
S1134A800B439361002036E01C4A138A02210B4336
S1134A90138200202FE0194A938A02210B43938248
S1134AA0002028E016490B68022213430B60134BC5
S1134AB09A8419000E32CB681A42FCD0104A9168CD
S1134AC00E4BD96252689A6200229A8419001032FD
S1134AD0CB681A42FCD00A4B1B689BB2074A9384EA
S1134AE0002008E0054944228B5C022003438B54D8
S1134AF0002000E000207047588B000000080040B0
S1134B0048010020F0B5C64600B584B0C222D200E8
S1134B10214B9A60214A53681E218B435360012321
S1134B206A46137000241E4DE0B26946A84701345A
S1134B30252CF9D103A800244470012398468370DE
S1134B400470184B98470620174B9847174B984703
S1134B506B465C7006271F701C725C7210230193F5
S1134B6069460320124EB0470320124DA847124B4A
S1134B701C725C729C72DC72434601936B465C70DF
S1134B801F701C725C7269460020B0470020A84761
S1134B9004B004BC9046F0BD000800400040004151
S1134BA0F54D0000214A00005D4A0000BD4B0000A5
S1134BB0E14B0000994C000000040040064A936950
S1134BC008210B4393610122044B1A7019000B78DE
S1134BD01342FCD17047C04600040040000C004062
S1134BE070B5060004000D782D0205434B78002BA8
S1134BF002D08023DB021D434B7A002B02D080239A
S1134C001B031D434868012810D9431E184234D1A0
S1134C10022830D90223002201325B009842FBD8DB
S1134C2012023243140080235B031D430B7A002BD2
S1134C3002D080239B031D43134A53785BB2002B9D
S1134C40FBDB124B9847124B1E700F4A53785BB232
S1134C50002BFBDB0C4B9C601A0053785BB2002BDF
S1134C60FBDB094A5368802149020B401D43556010
S1134C70084B984770BD0022D2E7040234438023D6
S1134C809B021D43D2E7C046000C0040093F0000D0
S1134C90080C0040493F000010B504000B4A53784B
S1134CA05BB2002BFBDB0A4B98470A4B1C70074A8C
S1134CB053785BB2002BFBDB044A516880235B0210
S1134CC00B435360044B984710BDC046000C004092
S1134CD0093F0000040C0040493F000070B5040087
S1134CE01A4A53785BB2002BFBDB194B9847194BDC
S1134CF01C70164A53785BB2002BFBDB134E7068B2
S1134D00C004C00E144B98470500124B1C70766803
S1134D10F602F60F114B1C700C4A53785BB2002B51
S1134D20FBDB0A4B9C682402240C0D4B9847002E95
S1134D3007D1012C07D9210028000A4B9847050008
S1134D4001E00134E540280070BDC046000C00407D
S1134D50093F0000040C00408D490000080C00408D
S1134D60493F0000316E000010B50400064B98471F
S1134D70064B1C70064A53888021C9010B4353809B
S1134D80044B984710BDC046093F0000020C004088
S1134D90000C0040493F000010B504000F4B984739
S1134DA00F4B1C700F4A53881B05180F53880E496C
S1134DB00B40538053880D490B40538011008022CF
S1134DC0D2014B881342FCD106494A8803020648A3
S1134DD0024013434B80064B984710BD093F000027
S1134DE0020C0040000C0040FFF0FFFFFFBFFFFF7C
S1134DF0493F000010B50C7824020443024B984745
S1134E00A4B2024B5C8010BD994D0000000C004020
S1134E1010B50400064B9847064B1C70064B5C8883
S1134E202405240F054B98472000054B984710BDD7
S1134E30093F0000020C0040000C0040493F000004
S1134E40DD4C000030B5D378002B35D11378802B9E
S1134E5029D01B0680246402234354780225AC43E2
S1134E6006D19478002C20D18024A40223434160ED
S1134E705478013C012C1CD90D042D0CA024E4050C
S1134E802C431C4384620D0CD02424062C431C4365
S1134E908462D478002C22D15B031CD59378012B37
S1134EA01ED0416117E00023D7E7C024E402234366
S1134EB0DDE70D4C2340DFE741600C04240CA02304
S1134EC0DB05234383620C0CD0231B06234383623C
S1134ED0D378002B03D15378013B012B02D930BD89
S1134EE08161F8E78160FAE7FFFFFBFF10B50A0074
S1134EF0C1090023002904D14309DB0105498C467B
S1134F0063441F242040012181401800024B98472C
S1134F1010BDC04600440041454E000070470000EB
S1134F2010B5054B9847054B9847054B9847054BDB
S1134F309847054B984710BD054B0000793F00008A
S1134F401D4F00001D4F00001D4F0000FEE7000034
S1134F50F8B52A4A2A4B9A4211D01A00294B9A4290
S1134F600DD2294A03339B1A9B0801339B0000226C
S1134F70234822498C58845004329A42FAD1234A55
S1134F80234B9A420AD2D34321495B1803218B4312
S1134F9004339B18002102C29342FCD11D4AFF2115
S1134FA01D4B8B439360FD3990235B001B4AD1500A
S1134FB01B4AD3780325AB4302242343D370D3780D
S1134FC00C27BB4308263343D370164B987B3022FF
S1134FD09043202210439873997BB94331439973CA
S1134FE09A7BAA4322439A730F4A536880210B4346
S1134FF053600E4B98470E4B9847FEE7388E0000DF
S1135000000000209C000020040000209C000020E0
S1135010843F002000ED00E000000000007000412B
S11350200050004100480041004000413D74000030
S1135030056E00000300064A1268002A04D0044AE0
S11350401068C318136070470249014A1160F6E7FB
S113505060010020885F00200120404270478023C7
S11350609B014B600020704701207047002070476F
S1135070030008334360012252428260C36003612B
S113508000230360704700230361704743684B604B
S11350909A688A609A68516099600861036801336C
S11350A00360704730B50C6802000832631C02D1FB
S11350B0026904E01A0053681D68AC42FAD25368CE
S11350C04B6099608A605160086103680133036032
S11350D030BD0369426881689160826841685160AB
S11350E05A68904206D0002202611A68013A1A6096
S11350F01868704782685A60F5E7000082B00023A0
S11351000193064B1B68013301D072B6FEE772B6F9
S1135110019B002BFCD002B07047C0463400002035
S11351200B4A13681868203080F30988022080F342
S11351301488BFF36F8F3FBCAE4608BC04BC62B694
S11351401847C046C046C046C046C046C046C046D2
S1135150EC3A002010B5031F802464041C60043B57
S11351601960043B02491960143B1A60403810BDB1
S1135170FD5000007047000070B5124B1968FF2203
S113518012040A431A601968FF2212060A431A60BD
S11351900D4D00242C600D4B1C6000200C4B9847D7
S11351A0C8210C4B984701380B4B186007232B6020
S11351B00A4B1C600A4B98470A4B98470A4B98477E
S11351C0002070BD20ED00E010E000E018E000E0F9
S11351D0DD4C0000316E000014E000E034000020DB
S11351E021510000A5610000FD50000080225205FD
S11351F0034B1A60BFF34F8FBFF36F8F7047C046E6
S113520004ED00E072B6044A136801331360BFF37F
S11352104F8FBFF36F8F704734000020064B1B681D
S1135220002B01D172B6FEE7013B034A1360002B49
S113523000D162B67047C04634000020EFF31080FE
S113524072B6704780F310887047000000000000B9
S1135250EFF309800E4B1A6820381060F0C0444602
S11352604D4656465F46F0C008B572B600F09AFF48
S113527062B60CBC116808681030F0C8A046A94694
S1135280B246BB4680F309882038F0C81847C046A8
S1135290EC3A002010B5074B98470400064B98479A
S11352A0002803D080225205044B1A602000044BCE
S11352B0984710BD3D520000455F000004ED00E03A
S11352C04552000070B50400430702D007239C43F5
S11352D00834114B9847114B1B68002B10D0104B0E
S11352E01B68E4180F4A944211D8A34211D20B4A06
S11352F01568ED180A4B1C600B4B9847280070BDCD
S113530007220A4B08339343044A1360E7E7002556
S1135310F2E70025F0E7C046295F000064010020A1
S1135320E83A002077390000656000006801002039
S1135330002801D072B6FEE77047000010B50400E3
S1135340034B9847A46B034B98476042604110BDE0
S1135350055200001D52000070B504001600856B54
S1135360026C002A0BD100202368834204D16068B8
S1135370164B9847002363600135A56370BD002E6A
S11353800ED18068124B9847A368226C94466344FC
S1135390A360002062689342EED32368A360EBE726
S11353A0C0680B4B9847236C5B42E268D218E260FA
S11353B021688A4203D2626894466344E360002011
S11353C0022ED9D18542D7D0013DD5E779640000BA
S11353D09B74000070B582B001900A00846C002CAC
S11353E005D0A16BE36B994203D372B6FEE772B6A4
S11353F0FEE7A16B00268B4202D8300002B070BDDC
S11354004523E55C6DB201A920000A4B98470600CC
S11354106B1C0AD1636A002BEFD020002430064BAA
S113542098470028E9D00126E7E701356DB2452306
S1135430E554E2E759530000A562000010B50C00E2
S1135440026C002A0BD0C3689B18C36041688B426E
S113545001D30368C360C1682000014B984710BDA5
S11354609B740000F8B50700254B98474523FC5C66
S113547064B2002C1CDD234E234D0BE07B6A002B11
S113548016D038002430A84700280ED1013C64B25D
S1135490002C0DD0BB6C002BF0D000213800B0479D
S11354A00028F3D0194B9847F0E7184B9847EDE7DD
S11354B0FF224523FA54164B9847114B984744232F
S11354C0FC5C64B2002C14DD3B69002B11D03D0060
S11354D010350D4E06E0013C64B2002C09D03B6946
S11354E0002B06D02800B0470028F4D0074B98477B
S11354F0F1E7FF224423FA54054B9847F8BDC04610
S113550005520000D5530000A5620000B5630000F9
S11355101D52000070B504000D00002821D0174B67
S113552098472268216CE36B4B43D01860600020DD
S1135530A063A2605B1AD318E360FF234422A35440
S11355400132A354002D11D12369002B05D0200072
S113555010300B4B9847002805D10A4B984701207F
S113556070BD72B6FEE7084B9847F6E7200010308E
S1135570064DA84720002430A847EEE70552000056
S1135580A56200001D520000ED51000071500000A2
S113559070B506000D00002801D172B6FEE70800C0
S11355A070434C300A4B9847041E0ED0002D03D094
S11355B003004C33036000E02060E66325640121AE
S11355C02000044B98470023A364200070BDC0460C
S11355D0C552000015550000F0B5CE46474680B5CB
S11355E085B004000F0001921D0000280CD0002992
S11355F00CD0022D0FD04E4B9847002810D1019BA0
S1135600002B11D072B6FEE772B6FEE7036C002BD6
S1135610EFD072B6FEE7E36B012BECD072B6FEE777
S11356200026444B98464CE00026FAE72A0039004D
S11356302000414B9847A36C002B0FD02900200079
S11356403E4B9847002801D03D4B98473D4B984727
S1135650012005B00CBC90469946F0BD636A002B4E
S113566008D020002430384B98470028EED0344B23
S11356709847EBE70028E9D0314B9847E6E7314BF0
S113568098470020E5E72F4B984701A902A82F4B24
S11356909847002844D1274B9847A36B9946E66B5B
S11356A0284B9847B14535D1200010300199284B3B
S11356B098472000274B9847274B9847002826D027
S11356C00126C047A36BE26B9342AFD3022DADD04A
S11356D0019B002BD3D0002E02D102A81F4B984768
S11356E0184B98471E4B9847124B98474423E35C4A
S11356F05BB2013302D100224423E2544523E35C2C
S11357005BB20133BFD100224523E254BBE70C4B0B
S11357109847D5E720000F4B98470F4B9847CFE7A2
S113572020000C4B98470C4B9847002091E7C0464B
S1135730C16300000552000059530000D553000016
S1135740ED5100001D520000A562000045630000F9
S11357504162000065540000656000002D63000094
S1135760295F000070B5020000210120064B984714
S1135770041E07D0002343600360C360002200219D
S1135780024DA847200070BD91550000D955000076
S1135790F0B583B00400019116001D00002812D05A
S11357A0019B002B11D0022D14D0284B9847009058
S11357B0A36BE26B9A422FD800250098244B98479C
S11357C0280003B0F0BD72B6FEE7036C002BEAD0EC
S11357D072B6FEE7E36B012B1AD072B6FEE7636A7A
S11357E00125002BE9D0200024301A4B98470028CB
S11357F0E3D0002E0AD001233360DEE77B1C5BB2CA
S11358004522A3540125D8E70125D6E70125D4E78D
S11358100E4B98470090A36B4523E75C7FB22A00A8
S1135820019920000C4B98477B1CE7D1A36C002BFB
S1135830D5D029002000094B984701250028BCD069
S1135840002EE1D001233360B7E7C0463D5200008B
S113585045520000A562000059530000D5530000D2
S1135860F0B5C64600B584B004000F0001920028CC
S11358700AD000290AD0424B984700280BD1019B3B
S1135880002B0CD072B6FEE772B6FEE7036C002B59
S1135890F1D072B6FEE700263A4B98462FE0002678
S11358A0FAE739002000384B9847013DA563236986
S11358B0002B07D020001030344B9847002801D02B
S11358C0334B9847334B9847012004B004BC9046AF
S11358D0F0BD304B98470020F7E702A82E4B9847BD
S11358E016E000224423E2541DE000224523E25442
S11358F01EE02000294B9847294B98470126C047B2
S1135900A56B002DCDD1019B002BE2D0002EE4D05D
S1135910204B9847234B98471A4B98474423E35C02
S11359205BB20133DDD04523E35C5BB20133DCD0F1
S1135930184B984701A902A81B4B9847002813D17C
S113594020001A4B98470028D3D020002430019916
S1135950174B98472000114B9847114B9847002844
S1135960CCD10B4B9847C9E720000C4B98470C4B04
S1135970984720000D4B98470028BFD00020A4E78B
S1135980C1630000055200003D540000A562000000
S1135990ED5100001D5200002D630000655400000D
S11359A065600000295F0000456300003D5300006E
S11359B041620000F0B585B0041E019104D0036C6F
S11359C0002B03D072B6FEE772B6FEE7504B984741
S11359D0002804D1019B002B05D072B6FEE70025F8
S11359E000264C4F48E000250026FAE7013BA3635C
S11359F02368002B02D1484B984760602369002B31
S1135A0007D020001030454B9847002801D0444B64
S1135A109847444B98470125280005B0F0BD002D58
S1135A2001D072B6FEE73F4B9847F5E702A83E4B1C
S1135A3098472AE000224423E25431E0002245231F
S1135A40E25432E0334B98476068384B984705007E
S1135A50344B984739E02000354B9847354B9847ED
S1135A6009E02000324B9847324B98472000324BD4
S1135A709847002838D10126B847A36B002BB5D12D
S1135A80019B002BCBD0002ED0D0264B98472B4B1C
S1135A909847204B98474423E35C5BB20133C9D059
S1135AA04523E35C5BB20133C8D01E4B984701A980
S1135AB002A8234B98470028D3D120001E4B9847B7
S1135AC00028C8D02368002BBCD0200024300199C2
S1135AD01C4B98472000164B9847164B98470028B4
S1135AE0C9D10F4B9847C6E7002D00D194E7094B65
S1135AF09847636A0021002B03D0236B1B68053190
S1135B00C91A6068104B9847064B9847002583E7ED
S1135B10C16300000552000081650000A562000019
S1135B20ED5100001D5200002D630000E1630000F0
S1135B3065540000656000003D530000295F0000CB
S1135B404563000041620000F564000070B5040084
S1135B500D001600114B98474423E35C5BB20133FC
S1135B600DD04523E35C5BB201330CD00C4B98475A
S1135B70A36B002B0BD020000A4B984770BD00226A
S1135B804423E254EDE700224523E254EEE72000EB
S1135B90243032002900044B9847ECE705520000FA
S1135BA01D520000655400006D620000084B1B6824
S1135BB01B68002B07D0064B1B68DB68DB685A6840
S1135BC0044B1A60704701225242024B1A60F9E7F3
S1135BD0F03A0020A03B0020F0B5D6464F4646469A
S1135BE0C0B5144B9946144B9846144F144B9A461F
S1135BF04B461B68002B16D0C047FB68DD68281D88
S1135C00D047104A1368013B13600A4C2368013BD8
S1135C1023600D4B9847286B0C4EB0472800B047C3
S1135C202368002BE8D10A4B1B68012BE0D9094BF0
S1135C309847DDE7603B002005520000D43B00207C
S1135C40D35000005C3B00201D5200003153000083
S1135C50F83A0020ED51000070B504000D00174B18
S1135C601E68174B18680430164B9847631C13D0F2
S1135C703419134B1B685C60A64216D8124B186883
S1135C800F4B19680431114B9847114B1B689C4208
S1135C9012D20F4B1C600FE0002DE9D0084B19689D
S1135CA004310C480C4B984706E00C4B1868044B25
S1135CB019680431054B984770BDC046E83B002085
S1135CC0EC3A0020D3500000F03A0020A550000028
S1135CD0A03B0020C03B00208D500000F43A00207F
S1135CE0F0B5C64600B584B001900D00029397004C
